:020000040000FA
:1000000012EF0BF0F76A140FF66E000EF7220900DC
:10001000F55012005344206361726420696E697464
:1000200069616C697A65642073756363657373666F
:10003000756C6C79210D0A0D0A00F76A4A0FF66E8D
:10004000000EF7220900F550120043616E206E6F1A
:100050007420696E697469616C697A652053442003
:1000600063617264210D0A48414C5445440D0A00F5
:10007000F76A800FF66E000EF7220900F5501200A5
:10008000506172746974696F6E204C424120426500
:1000900067696E3A20256C750D0A0000F76AAC0F8F
:1000A000F66E000EF7220900F550120053797374B2
:1000B000656D2069733A2046415433320D0A0000C1
:1000C000F76AD00FF66E000EF7220900F550120005
:1000D00053797374656D2069733A20464154313603
:1000E0000D0A0000F76AF40FF66E000EF722090001
:1000F000F55012004D656D6F727920666F726D61FB
:1001000074206E6F74204641543136206F72204641
:10011000415433320D0A0000F76A280FF66E010EC3
:10012000F7220900F550120042797465732070655A
:100130007220736563746F723A20256C750D0A0026
:10014000F76A500FF66E010EF7220900F550120003
:10015000536563746F72732070657220636C75737E
:100160007465723A2025750D0A00F76A7A0FF66EEB
:10017000010EF7220900F55012004E756D6265728E
:10018000206F66207265736572766564207365639F
:10019000746F72733A20256C750D0A00F76AAC0F04
:1001A000F66E010EF7220900F55012004E756D62D1
:1001B0006572206F6620464154733A2025750D0AFA
:1001C0000000F76AD20FF66E010EF7220900F55013
:1001D0001200536563746F7273207065722046411C
:1001E000543A20256C750D0A0000F76AFA0FF66E76
:1001F000010EF7220900F5501200526F6F7420644F
:1002000069726563746F72792066697273742063B2
:100210006C75737465723A20256C750D0A00F76A67
:100220002E0FF66E020EF7220900F550120046411D
:100230005420626567696E204C42413A20256C75F6
:100240000D0A0000F76A540FF66E020EF72209003D
:10025000F55012004461746120626567696E204C3C
:1002600042413A20256C750D0A00F76A7A0FF66E46
:10027000020EF7220900F5501200526F6F742044ED
:1002800069726563746F7279204C42413A20256C23
:10029000750D0A00F76AA40FF66E020EF722090028
:1002A000F55012004469723A0000F76ABA0FF66E10
:1002B000020EF7220900F55012004669727374208D
:1002C0004C42413A20256C750D0A0000F76ADC0F9C
:1002D000F66E020EF7220900F5501200466972739D
:1002E0007420436C75737465723A20256C750D0A21
:1002F0000000F76A020FF66E030EF7220900F550B0
:10030000120046696C653A00F76A180FF66E030E24
:10031000F7220900F550120053697A653A20256CDE
:10032000752062797465730D0A00F76A3A0FF66EEC
:10033000030EF7220900F550120053686F77696EBB
:10034000672066696C652773206669727374203351
:10035000322062797465730D0A0D0A00F76A6C0F1A
:10036000F66E030EF7220900F55012004E6F206D55
:100370006F72652066696C657320696E20726F6F9D
:1003800074206469726563746F7279210D0A0000CC
:100390009380949E9392EDEF01F0C650F00B030111
:1003A0000B11C66E0001F0EF01F0C79C03010BB109
:1003B000C78C0001F4EF01F0C69803010BB1C688A9
:1003C0000001F9EF01F0C79E03010BB1C78E0001D8
:1003D000FDEF01F0929AC69ADBD70AC30BF3DDD783
:1003E00003010B6B0001E1D7010E03010B6F00014C
:1003F000E3D703010B6B0001E6D7C68A000CFF0EA2
:1004000003010B6F0F0E0C6FC950FF0EC96EC7A012
:10041000FED70A51C95C07E00B51D8B40C070B2F6B
:10042000F3D70C53F1E10B5306E10C5304E1000E3A
:10043000016E04D003D0010E016E00D00001000C4B
:10044000898A020E03010A6F0001C4DFC950FF0E42
:10045000C96EC7A0FED7C950FF0EC96EC7A0FED790
:10046000C950FF0EC96EC7A0FED7C950FF0EC96E96
:10047000C7A0FED7C950FF0EC96EC7A0FED7C9508E
:10048000FF0EC96EC7A0FED7C950FF0EC96EC7A028
:10049000FED7C950FF0EC96EC7A0FED7C950FF0EC8
:1004A000C96EC7A0FED7C950FF0EC96EC7A0FED740
:1004B000899AC950400EC96EC7A0FED7C950C96AF3
:1004C000C7A0FED7C950C96AC7A0FED7C950C96A1C
:1004D000C7A0FED7C950C96AC7A0FED7C950950E9C
:1004E000C96EC7A0FED7010E03010A6F000187DFA6
:1004F000015203E1000E016E7ED0898AC950FF0EC1
:10050000C96EC7A0FED70201A26BA16BA2510F0852
:100510003AE303E1A151FE0836E3A12BD8B4A22BA4
:10052000899AC950410EC96EC7A0FED7C950C96A81
:10053000C7A0FED7C950C96AC7A0FED7C950C96AAB
:10054000C7A0FED7C950C96AC7A0FED7C950FF0EC1
:10055000C96EC7A0FED703010A6B000150DF012C52
:100560000AD0898AC950FF0EC96EC7A0FED7020102
:100570000AD008D00001898AC950FF0EC96EC7A0F1
:10058000FED70201C3D7A25303E1A151FD0805E242
:10059000000E016E00012FD00201898AC950FF0EA2
:1005A000C96EC7A0FED7899AC950500EC96EC7A0A0
:1005B000FED7C950C96AC7A0FED7C950C96AC7A02B
:1005C000FED7C950020EC96EC7A0FED7C950C96A6E
:1005D000C7A0FED7C950FF0EC96EC7A0FED7030142
:1005E0000A6B00010CDF015203E1000E016E03D023
:1005F000898A010E016E2AEF0BF0939E8A9E080EE7
:10060000016E00D00000018E10D0019E0201B133B6
:100610000001D8B08A8ED8A08A9E018C06D0019C99
:10062000012EF4D700D000008A8E080EE96EE92E64
:10063000FED7000001BEE9D701BCF1D7000C898AC2
:1006400003010A6B0001C6DE899AD89006C307F33E
:1006500005C306F304C305F30301046B053706372E
:100660000737C950510EC96EC7A0FED707C300F0A7
:10067000016A026A036A07C30BF3C95007C3C9FFC3
:10068000C7A0FED706C300F007C301F0026A036AE1
:1006900006C30BF3C95006C3C9FFC7A0FED705C3E5
:1006A00000F006C301F007C302F0036A05C30BF3B1
:1006B000C95005C3C9FFC7A0FED7C95004C3C9FFAD
:1006C000C7A0FED7C950FF0EC96EC7A0FED70A6BE0
:1006D000000195DE015203E1000E016E0CD0FE0E0A
:1006E00003010A6F00018BDE015203E1000E016E6F
:1006F00002D0010E016E93EF03F0C950FF0EC96ED8
:10070000C7A0FED7C950FF0EC96EC7A0FED7898A01
:10071000C69A000C01C307F300C306F3FFC205F33A
:10072000FEC204F38CD7012C1DD00301036B026BB6
:100730000351010811E3050E0225E96E000E0321A5
:10074000EA6EC950FF0EC96EC7A0FED7C9CFEFFF32
:10075000022BD8B4032BECD70001CFDF010E016EC2
:1007600005D004D0CADF000E016E00D0000C0201DB
:100770005C91050EA325E96E000EA421EA6EEF50F0
:10078000800803E0000E016E68D0040EA325A56F5B
:10079000000EA421A66F050EA525E96E000EA62168
:1007A000EA6EEFCF5DF25D51040806E05D51060888
:1007B00003E05D510E0802E15C935C815D510B0822
:1007C00003E05D510C0802E15C835C815CB103D005
:1007D000000E016E42D00B0EA325A56F000EA421C2
:1007E000A66F050EA525E96E000EA621EA6EEFCFD5
:1007F000A7F20A0EA325A86F000EA421A96F050E6B
:10080000A825E96E000EA921EA6EEFCFAAF2090E23
:10081000A325AB6F000EA421AC6F050EAB25E96ECE
:10082000000EAC21EA6EEFCFADF2080EA325AE6F3D
:10083000000EA421AF6F050EAE25E96E000EAF21AC
:10084000EA6EEFCFB0F2A7C236F2AAC235F2ADC25D
:1008500034F2B0C233F2010E016E000156EF04F023
:100860000301016B006B0201FF6BFE6B000152DFA5
:1008700002010351550803E10451AA0803E0000EE8
:10088000016E26D05C91A06BA051030817E3A05124
:10089000100DF350BE0FA16F010EA26FD8B0A22BA6
:1008A000A2C2A4F2A1C2A3F2000161D7015203E0E7
:1008B000020104D000010201A02BE6D75CB106D0F2
:1008C000366B356B346B336B5C835C81010E016E70
:1008D000000169EF0BF0006A016A026A036A030112
:1008E0000E6B0F6B106B116B0D510C110B110A116C
:1008F0002CE0200E126FD8900637073708370937DB
:100900000E370F37103711370D51115D08E10C51BB
:10091000105D05E10B510F5D02E10A510E5D0FE321
:100920000A510E5F0B51D8A00B3D0F5F0C51D8A0A0
:100930000C3D105F0D51D8A00D3D115FD8800036E1
:10094000013602360336122FD6D7030EEA6E0E0E8C
:10095000E96E0001000CE9500201A96F3B0EB06F77
:100960009A0EAF6FCA0EAE6FAD6B0A0EAB6FA8C218
:1009700009F3A7C208F3A6C207F3A5C206F3B0C2E3
:100980000DF3AFC20CF3AEC20BF3ADC20AF300011C
:10099000A2DF0150EFCFA5F2ECCFA6F2ECCFA7F289
:1009A000ECCFA8F2005213E10201AB51010AD8A426
:1009B00002D000010CD0A9510CE00F0BAB5D01E09F
:1009C0000EE2A9BF0CD0A9BD04D0200E03D00201B5
:1009D000A96B300E002600C0B1F200010EDEB0C2DD
:1009E00009F3AFC208F3AEC207F3ADC206F30301C9
:1009F0000D6B0C6B0B6B0A0E0A6F00016CDF03C0F2
:100A0000B0F202C0AFF201C0AEF200C0ADF202011E
:100A1000AB2FADD70001000C03010E6B0F6B010E65
:100A2000106FDA6AD96A030E136F060E126F030E87
:100A3000EA6E0A0EE96E13C3E2FF12C3E1FF10C3B0
:100A400011F3D890E550EE02F3500E23F4500F232B
:100A5000112FF7D70EC3DEFF0FC30EF30F6BD8B005
:100A60000F2B122BD8B4132B102B10510508DFE1DC
:100A70000001000C36C201F335C200F334C2FFF2AC
:100A800033C2FEF247DE02013F6B0351550803E11A
:100A90000451AA0803E0000E016E9DD011C026F299
:100AA00010C025F212C027F214C029F213C028F298
:100AB00015C02AF25CA309D02CC02EF22BC02DF257
:100AC0002AC02CF229C02BF249D01CC02CF21BC02A
:100AD0002BF22D6B2E6B17C0A1F216C0A0F2A26BE9
:100AE000A36B1634A46F1734A56FA235A66FA33578
:100AF000A76FA437A537A637A737A437A537A637DA
:100B0000A737A437A537A637A737A437A537A63701
:100B1000A737E00EA41725C200F026C201F0026A32
:100B2000036A03C0ABF202C0AAF226C2A9F225C230
:100B3000A8F2A7C209F3A6C208F3A5C207F3A4C28C
:100B400006F303C00DF302C00CF326C20BF325C25B
:100B50000AF30001C0DE00C03FF20201026A036A2C
:100B600028513325376F29513421386F02503521F0
:100B7000396F035036213A6F0301096B086B076B1D
:100B80002AC206F32EC20DF32DC20CF32CC20BF3B6
:100B90002BC20AF3000140DF0050020137253B6FF2
:100BA000015038213C6F025039213D6F03503A21EA
:100BB0003E6F5CA309D034C032F233C031F232C090
:100BC00030F231C02FF205D0326B316B306B020E38
:100BD0002F6F010E016E0001CDEF0BF0EACFA9F2ED
:100BE000E9CFA8F20201A239F009A46FA427E20F0D
:100BF000A56F320FA76FA2510F0BA527A527A72717
:100C0000E90FA66FA627A627A1390F0BA627A727AE
:100C1000A637A737A71FA737A1510F0BA727A437C0
:100C2000070EA36F0A0EA607A727FDE3A507A627B1
:100C3000FDE3A407A527FDE3A307A427FDE3020E18
:100C4000EA6EA30EE96E070EA815A89DE926A70E69
:100C5000E95CD8B4A88DEF50006E08E1A8BD06D0BD
:100C6000A8B915D0A8B702D0200E03D0A887A8999C
:100C7000300E0026EACFA2F2E9CFA1F200C0B1F215
:100C80000001BBDCA2C2EAFFA1C2E9FF0201EE50F3
:100C9000A8ADDDD70001000C0201A451016AA35DDB
:100CA00003E2A3C200F00CD0006A080EA56FA337C0
:100CB0000036A451005CD8B0006E0136A52FF7D7DE
:100CC0000001000C0150A1C2A3F2640E0201A46F46
:100CD0000001E2DF00C0A1F20150300E08E1020184
:100CE000A2A30FD0A2B70DD0A2B9200E04D002014A
:100CF000A297A299A281012601C0B1F200017DDC78
:100D00000201A1C2A3F20A0EA46F0001C5DF00C058
:100D1000A1F20150300E08E10201A2B70AD0A2A14F
:100D200008D0A2B9200E0001012601C0B1F265DC95
:100D30000201300EA127A1C2B1F200015EDC000C5D
:100D4000020E0201EA5DEE6F000EEB59EF6F000E2E
:100D5000EC59F06F000EED59F16F27C200F0016AF7
:100D6000026A036A03C0F5F202C0F4F201C0F3F2B2
:100D700027C2F2F2E8CF09F3F0C208F3EFC207F39B
:100D8000EEC206F303C00DF302C00CF301C00BF377
:100D900027C20AF3000140DE02013B5100263C510C
:100DA00001223D5102223E5103220001000CA3C248
:100DB00043F2A2C242F2A1C241F2A0C240F243C237
:100DC000EDF242C2ECF241C2EBF240C2EAF2B8DF0D
:100DD00003C047F202C046F201C045F200C044F22F
:100DE0000201486B4A6B496B4B934B8100016AEFE0
:100DF0000DF00201C66BC035C16FC635C26FC13779
:100E0000C237C137C237C137C237C137C237E00E28
:100E1000C117C46BC36BC45321E1C3511F081EE348
:100E2000050EC325016E020EC421036EC351C125F8
:100E3000C76FC451C221C86F050EC725E96E000EE9
:100E4000C821EA6EEFCFC9F203C0EAFF01C0E9FF93
:100E5000C9C2EFFFC32BD8B4C42BDDD700011AEFF2
:100E600009F00201055304E1010E016E04D003D024
:100E7000000E016E00D00001000C020110C201F052
:100E80000001000CFADF01C0C0F20201C03BF00E0D
:100E9000C017C051F00804E1000E016E04D003D069
:100EA000010E016E00D000016AEF07F0DADF015297
:100EB00007E002014B83000E016E20D01FD000011D
:100EC00002010551E50804E1010E016E17D016D0AC
:100ED0000001D8D701520EE0D0DF01C0C0F20201FC
:100EE00001A803D0040E016E09D0030E016E06D0D6
:100EF00005D00001020E016E020100D000011BEFBF
:100F000009F00201C26BC2510A0819E3036AC25117
:100F1000C025016EC151032203C0C4F2036AC2514D
:100F2000050FE96E020E0320EA6EEFCFC5F2C4C2D0
:100F3000EAFF01C0E9FFC5C2EFFFC22BE4D7036A95
:100F4000C251C025E96EC1510320EA6EEF6A00016B
:100F500028EF09F01AC203F019C202F020C201F012
:100F60001FC200F0000C0201C26BC251070819E356
:100F7000036AC251C025016EC151032203C0C4F2ED
:100F8000036AC251050FE96E020E0320EA6EEFCF2D
:100F9000C5F2C4C2EAFF01C0E9FFC5C2EFFFC22B20
:100FA000E4D7080EC025E96E000EC121EA6E2E0EB0
:100FB000EF6E080EC26FC2510A081AE3010EC22575
:100FC000036AC025016EC151032203C0C5F2036A42
:100FD000C251050FE96E020E0320EA6EEFCFC6F292
:100FE000C5C2EAFF01C0E9FFC6C2EFFFC22BE3D7CB
:100FF000000158EF09F024C203F023C202F022C21C
:1010000001F021C200F059EF09F00301016B006B00
:1010100026C2FFF225C2FEF20131036E0031026EDC
:1010200002012631016E2531006E03320232013297
:1010300000323F0E031603C005F302C004F301C0E3
:1010400003F300C002F3EDC209F3ECC208F3EBC2F4
:1010500007F3EAC206F303C00DF302C00CF301C0AC
:101060000BF300C00AF3000136DC03C0F1F202C04A
:10107000F0F201C0EFF200C0EEF20201EE513725AE
:10108000F26FEF513821F36FF0513921F46FF151C4
:101090003A21F56F0301016B006B26C2FFF225C2F6
:1010A000FEF20131036E0031026E02012631016E43
:1010B0002531006E03320232013200323F0E031638
:1010C00003C005F302C004F301C003F300C002F340
:1010D000F1C209F3F0C208F3EFC207F3EEC206F360
:1010E00003C00DF302C00CF301C00BF300C00AF300
:1010F000000192DC00500201EA5DF66F0150EB59ED
:10110000F76F0250EC59F86F0350ED59F96FF6354F
:10111000FA6FF735FB6FF835FC6FF935FD6FFA376D
:10112000FB37FC37FD37FC0EFA17F5C201F3F4C2AA
:1011300000F3F3C2FFF2F2C2FEF200018AEC03F008
:10114000030E0201FA25FE6F000EFB21FF6F000E59
:10115000FC21000E0201FD21050E0201FE25E96EB3
:10116000000EFF21EA6EEFCF02F3020EFA25030113
:10117000036F000E0201FB210301046F000E020148
:10118000FC21000E0201FD210301050E0325E96E7D
:10119000000E0421EA6EEFCF07F3010E0201FA25DB
:1011A0000301086F000E0201FB210301096F000E0D
:1011B0000201FC21000E0201FD210301050E08259C
:1011C000E96E000E0921EA6EEFCF0CF3050E020165
:1011D000FA25E96E000EFB21EA6EEFCF0DF302C394
:1011E00003F007C302F00CC301F00DC300F00001CF
:1011F000000C0201BF91B26BB66BB56BB46BB36BF5
:10120000BE6BBD6BBC6BBB6BBA6BB96BB86BB76BB2
:1012100047C201F346C200F345C2FFF244C2FEF2E8
:1012200000018AEC03F002014BA1BFD048C2C0F21A
:101230000001DFD53BD60150040A03E0070A2DE088
:1012400065D0020E0201C16FA60EC06F000159D613
:1012500014DE01C0B2F27EDE03C0BEF202C0BDF2F7
:1012600001C0BCF200C0BBF2BEC2EDF2BDC2ECF2E6
:10127000BCC2EBF2BBC2EAF263DD02013F510024C3
:10128000B36F000E0120B46F000E0220B56F000E88
:101290000320B66FBF81000139D0EFDD0150200877
:1012A00034E1020E0201C16FA60EC06F00015BD6D1
:1012B000A2D603C0BAF202C0B9F201C0B8F200C0AF
:1012C000B7F2DBDD01C0B2F245DE03C0BEF202C000
:1012D000BDF201C0BCF200C0BBF2BEC2EDF2BDC2A5
:1012E000ECF2BCC2EBF2BBC2EAF22ADD02013F51D2
:1012F0000024B36F000E0120B46F000E0220B56F02
:10130000000E0320B66FBF81000100D00201482B00
:1013100048510F0843E2486B492BD8B44A2B4A5333
:101320000CE12751495D09E2010E4427D8B0452B55
:10133000D8B4462BD8B4472B25D04A6B496B43C24F
:10134000EDF242C2ECF241C2EBF240C2EAF200011D
:101350005CDE03C043F202C042F201C041F200C0B1
:1013600040F243C2EDF242C2ECF241C2EBF240C2A3
:10137000EAF2E6DC03C047F202C046F201C045F2E1
:1013800000C044F247C201F346C200F345C2FFF277
:1013900044C2FEF200018AEC03F00201000161DDAB
:1013A000015204E10201BFA141D70001A60E016E66
:1013B000020E026E6CEF0DF0B8C24FF2B7C24EF2E1
:1013C000B6C24DF2B5C24CF24FC2EDF24EC2ECF2D3
:1013D0004DC2EBF24CC2EAF2B3DC02013F510024F1
:1013E000506F000E0120516F000E0220526F000E50
:1013F0000320536F556B546B596B586B576B566B7F
:101400005B6B5A6B4B85000144EF0FF00201E66BFA
:10141000E76BE46BE36BE58153C201F352C200F367
:1014200051C2FFF250C2FEF200018AEC03F0020149
:101430004BA5C1D0E96BE86BC25309E1C15307E189
:10144000E951C05D3CE303E1BF51E85D38E2010EC4
:101450005627D8B0572BD8B4582BD8B4592B59513C
:10146000BA5D29E30BE15851B95D25E307E1575116
:10147000B85D21E303E15651B75D1DE3C30EE825D6
:10148000016E020EE921036EE8515A25EC6FE95115
:101490005B21ED6F050EEC25E96E000EED21EA6E85
:1014A000EFCFEEF203C0EAFF01C0E9FFEEC2EFFFAB
:1014B000E62BD8B4E72BE82BD8B4E92BBDD7E7C28D
:1014C000E4F2E6C2E3F2E6515A27E7515B235B51AF
:1014D00001084AE25B6B5A6B542BD8B4552B555319
:1014E0000CE12751545D09E2010E5027D8B0512B71
:1014F000D8B4522BD8B4532B2AD0556B546B4FC24F
:10150000EDF24EC2ECF24DC2EBF24CC2EAF2000137
:101510007CDD03C04FF202C04EF201C04DF200C0AC
:101520004CF24FC2EDF24EC2ECF24DC2EBF24CC2A5
:10153000EAF206DC02013F510024506F000E012048
:10154000516F000E0220526F000E0320536F53C2E2
:1015500001F352C200F351C2FFF250C2FEF2000189
:101560008AEC03F015D00201BA51595D11E30BE189
:10157000B951585D0DE307E1B851575D09E303E147
:10158000B751565D05E3FF0E4F6F4E6F4D6F4C6FB9
:1015900002014F51FF080EE30BE14E51FF080AE331
:1015A00007E14D51FF0806E303E14C51F70802E360
:1015B000E59101D0E581C30E016E020E026E0001BD
:1015C0007FEF0FF00201A2BF12D00F0E006EA13903
:1015D00000160A0E005C03E2300E002602D0A25173
:1015E000002600C0B1F20001FDEC02F002010F0E76
:1015F000A1170A0EA15D02E2300E02D0A29FA251F5
:10160000A127A1C2B1F20001FDEC02F0B1EF0FF091
:1016100002014B950001D2EF0FF002014B91000146
:10162000E6EF0FF0F86AD09EEA6AE96A939E8A8E26
:10163000C69A949E93809392200EC66E000EC56E3D
:10164000C150C00B0F09C16E070EB46E000E926E32
:1016500020EF02F0012C13D00201A06BA051000179
:1016600002EC00F00201A02B006EB16F0001FDEC56
:1016700002F0250E0201A05DF1E128D00001020177
:10168000A06BA05100011DEC00F00201A02B006E28
:10169000B16F0001FDEC02F0230E0201A05DF1E14B
:1016A000030EA16F210EB16F0001FDEC02F00201EB
:1016B000A12FF8D70D0EB16F0001FDEC02F00A0E5C
:1016C0000201B16F0001FDEC02F0FFD7000130EF25
:1016D00004F00201A06BA051000138EC00F00201FF
:1016E000A02B006EB16F0001FDEC02F0150E02019F
:1016F000A05DF1E1410EE96E36C2A8F235C2A7F253
:1017000034C2A6F233C2A5F20001ABEC04F00D0E18
:101710000201B16F0001FDEC02F00A0E0201B16F8F
:101720000001FDEC02F002015CA124D05CA311D009
:10173000A06BA05100014EEC00F00201A02B006E46
:10174000B16F0001FDEC02F0120E0201A05DF1E1AB
:1017500010D0A06BA051000160EC00F00201A02BA2
:10176000006EB16F0001FDEC02F0120E0201A05DEF
:10177000F1E110D0A06BA051000172EC00F0020169
:10178000A02B006EB16F0001FDEC02F0220E0201F1
:10179000A05DF1E100013AEF05F0012CF8EF0FF048
:1017A0000201A06BA05100018CEC00F00201A02B03
:1017B000006EB16F0001FDEC02F0120E0201A05D9F
:1017C000F1E1100EE96E26C2A2F225C2A1F20001DB
:1017D000EEEC05F00D0E0201B16F0001FDEC02F020
:1017E0000A0E0201B16F0001FDEC02F00201A06BD4
:1017F000A0510001A0EC00F00201A02B006EB16F1F
:101800000001FDEC02F0150E0201A05DF1E127C21E
:10181000A1F21B0EA26F000162EC06F00D0E020198
:10182000B16F0001FDEC02F00A0E0201B16F000180
:10183000FDEC02F00201A06BA0510001B5EC00F03C
:101840000201A02B006EB16F0001FDEC02F01C0E36
:101850000201A05DF1E1100EE96E29C2A2F228C2D8
:10186000A1F20001EEEC05F00D0E0201B16F0001D6
:10187000FDEC02F00A0E0201B16F0001FDEC02F076
:101880000201A06BA0510001CEEC00F00201A02BE0
:10189000006EB16F0001FDEC02F0100E0201A05DC0
:1018A000F1E12AC2A1F21B0EA26F000162EC06F068
:1018B0000D0E0201B16F0001FDEC02F00A0E0201F3
:1018C000B16F0001FDEC02F00201A06BA05100011C
:1018D000E1EC00F00201A02B006EB16F0001FDEC05
:1018E00002F0110E0201A05DF1E1410EE96E2EC27F
:1018F000A8F22DC2A7F22CC2A6F22BC2A5F20001BB
:10190000ABEC04F00D0E0201B16F0001FDEC02F032
:101910000A0E0201B16F0001FDEC02F00201A06BA2
:10192000A0510001F5EC00F00201A02B006EB16F98
:101930000001FDEC02F01E0E0201A05DF1E1410E7E
:10194000E96E32C2A8F231C2A7F230C2A6F22FC2AB
:10195000A5F20001ABEC04F00D0E0201B16F000125
:10196000FDEC02F00A0E0201B16F0001FDEC02F085
:101970000201A06BA05100010FEC01F00201A02BAD
:10198000006EB16F0001FDEC02F00F0E0201A05DD0
:10199000F1E1410EE96E3AC2A8F239C2A7F238C2AB
:1019A000A6F237C2A5F20001ABEC04F00D0E020165
:1019B000B16F0001FDEC02F00A0E0201B16F0001EF
:1019C000FDEC02F002013F513B25A06F000E3C21CF
:1019D000A16F000E3D21A26F000E3E21A36FA46BEC
:1019E000A451000122EC01F00201A42B006EB16FA2
:1019F0000001FDEC02F0100E0201A45DF1E1410EC8
:101A0000E96EA3C2A8F2A2C2A7F2A1C2A6F2A0C226
:101A1000A5F20001ABEC04F00D0E0201B16F000164
:101A2000FDEC02F00A0E0201B16F0001FDEC02F0C4
:101A300032C2EDF231C2ECF230C2EBF22FC2EAF266
:101A4000A0EC06F003C0A3F202C0A2F201C0A1F212
:101A500000C0A0F20201A46BA451000135EC01F01A
:101A60000201A42B006EB16F0001FDEC02F0140E18
:101A70000201A45DF1E1410EE96EA3C2A8F2A2C287
:101A8000A7F2A1C2A6F2A0C2A5F20001ABEC04F03D
:101A90000D0E0201B16F0001FDEC02F00A0E020111
:101AA000B16F0001FDEC02F00D0E0201B16F0001FB
:101AB000FDEC02F00A0E0201B16F0001FDEC02F034
:101AC00032C2A3F231C2A2F230C2A1F22FC2A0F2FE
:101AD000D7EF06F0F9EF08F002C0A1F2020101C051
:101AE000A0F2020EEA6E640EE96E02C0E2FF01C0CF
:101AF000E1FF190E016EE6CFEEFF012EFCD770A9B3
:101B000096D0A06BA05100014AEC01F00201A02B7D
:101B1000006EB16F0001FDEC02F0040E0201A05D49
:101B2000F1E15F6B5E6B5F5315E15E510B0812E3F1
:101B3000640E5E25E96E020E5F21EA6EEFCFA0F221
:101B4000A0C2B1F20001FDEC02F002015E2BD8B49C
:101B50005F2BE9D70D0EB16F0001FDEC02F00A0E0C
:101B60000201B16F0001FDEC02F00201A06BA05177
:101B7000000155EC01F00201A02B006EB16F0001D5
:101B8000FDEC02F00B0E0201A05DF1E1410EE96EE9
:101B900074C2A8F273C2A7F272C2A6F271C2A5F211
:101BA0000001ABEC04F00D0E0201B16F0001FDEC81
:101BB00002F00A0E0201B16F0001FDEC02F0020119
:101BC000A06BA051000166EC01F00201A02B006E99
:101BD000B16F0001FDEC02F00F0E0201A05DF1E11A
:101BE000410EE96E7CC2A8F27BC2A7F27AC2A6F2CD
:101BF00079C2A5F20001ABEC04F00D0E0201B16F49
:101C00000001FDEC02F00A0E0201B16F0001FDECD3
:101C100002F00D0E0201B16F0001FDEC02F00A0EA0
:101C20000201B16F0001FDEC02F0C8D10201755351
:101C300007E1765305E1775303E17853D8B4BFD178
:101C4000A06BA051000179EC01F00201A02B006E05
:101C5000B16F0001FDEC02F0050E0201A05DF1E1A3
:101C60005F6B5E6B5F5315E15E510B0812E3640E10
:101C70005E25E96E020E5F21EA6EEFCFA0F2A0C2F0
:101C8000B1F20001FDEC02F002015E2BD8B45F2B33
:101C9000E9D70D0EB16F0001FDEC02F00A0E020152
:101CA000B16F0001FDEC02F00201A06BA051000138
:101CB00084EC01F00201A02B006EB16F0001FDEC7D
:101CC00002F0060E0201A05DF1E1410EE96E78C25C
:101CD000A8F277C2A7F276C2A6F275C2A5F20001F9
:101CE000ABEC04F0090E0201A16FA151000184ECDC
:101CF00001F00201A12B006EB16F0001FDEC02F0BA
:101D0000110E0201A15DF1E1A06BA051000155ECA3
:101D100001F00201A02B006EB16F0001FDEC02F09A
:101D20000B0E0201A05DF1E1410EE96E74C2A8F252
:101D300073C2A7F272C2A6F271C2A5F20001ABECA7
:101D400004F00D0E0201B16F0001FDEC02F00A0E6D
:101D50000201B16F0001FDEC02F00201A06BA05185
:101D6000000166EC01F00201A02B006EB16F0001D2
:101D7000FDEC02F00F0E0201A05DF1E1410EE96EF3
:101D80007CC2A8F27BC2A7F27AC2A6F279C2A5F2FF
:101D90000001ABEC04F00D0E0201B16F0001FDEC8F
:101DA00002F00A0E0201B16F0001FDEC02F00D0E0F
:101DB0000201B16F0001FDEC02F00A0E0201B16FE9
:101DC0000001FDEC02F00201A06BA051000195ECB6
:101DD00001F00201A02B006EB16F0001FDEC02F0DA
:101DE0001D0E0201A05DF1E1030EA16F2E0EB16F79
:101DF0000001FDEC02F00201A12FF8D71D0EA26F29
:101E0000A251000195EC01F00201A22B006EB16F0E
:101E10000001FDEC02F0210E0201A25DF1E164C2BD
:101E2000A0F265C2A1F266C2A2F267C2A3F268C2C2
:101E3000A4F269C2A5F26AC2A6F26BC2A7F26CC292
:101E4000A8F26DC2A9F26EC2AAF26FC2ABF270C262
:101E5000ACF271C2ADF272C2AEF273C2AFF274C232
:101E6000B0F275C2B1F276C2B2F277C2B3F278C202
:101E7000B4F279C2B5F27AC2B6F27BC2B7F27CC2D2
:101E8000B8F20001DCEF09F064C2A6F265C2A7F265
:101E900066C2A8F267C2A9F268C2AAF269C2ABF22E
:101EA0006AC2ACF26BC2ADF26CC2AEF26DC2AFF2FE
:101EB0006EC2B0F26FC2B1F270C2B2F271C2B3F2CE
:101EC00072C2B4F273C2B5F274C2B6F275C2B7F29E
:101ED00076C2B8F277C2B9F278C2BAF279C2BBF26E
:101EE0007AC2BCF27BC2BDF27CC2BEF20201C26BFE
:101EF000C16BC06B200EBF6F000106EF0AF002C07D
:101F0000A1F2020101C0A0F2020EEA6E7D0EE96E9E
:101F100002C0E2FF01C0E1FF230E016EE6CFEEFF3B
:101F2000012EFCD7636B626B5F6B5E6B5F5337E1B7
:101F30005E51010834E3616B606B615320E16051D5
:101F40000F081DE37D0E6225E96E020E6321EA6E25
:101F5000EFCFA0F2A0C2A1F2370EA26F0001E2EF14
:101F60000AF0200E0201B16F0001FDEC02F0020147
:101F7000622BD8B4632B602BD8B4612BDED70D0E47
:101F8000B16F0001FDEC02F00A0E0201B16F000119
:101F9000FDEC02F002015E2BD8B45F2BC7D7000125
:101FA00008EF0BF00D0E0201B16F0001FDEC02F025
:101FB0000A0E0201B16F0001FDEC02F002014BB309
:101FC00002D0000187D500010DEF0BF00201A06BDC
:101FD000A0510001AEEC01F00201A02B006EB16F28
:101FE0000001FDEC02F0220E0201A05DF1E1000112
:041FF000FFD7030014
:020000040030CA
:0E000000200C191E008381000FC00FE00F407E
:00000001FF
;PIC18F2550
