:020000040000FA
:100000005BEF0BF0F76A140FF66E000EF722090093
:10001000F5501200436F6E6669677572696E6720EE
:1000200074686520535049206D6F64756C650D0AC6
:100030000000F76A420FF66E000EF7220900F55035
:100040001200496E697469616C697A696E67204D46
:100050004D432F5344206D656D6F7279206361723B
:10006000640D0A00F76A740FF66E000EF72209009D
:10007000F550120054696D656F757420283129217F
:100080000D0A0000F76A940FF66E000EF7220900C1
:10009000F550120054696D656F757420283229215E
:1000A0000D0A0000F76AB40FF66E000EF722090081
:1000B000F550120054696D656F757420283329213D
:1000C0000D0A0000F76AD40FF66E000EF722090041
:1000D000F5501200546865204D4D432F5344206D58
:1000E000656D6F727920636172642068617320624C
:1000F00065656E20696E697469616C697A656420F2
:100100007375636365737366756C792E0D0A0000F1
:10011000F76A200FF66E010EF7220900F550120063
:10012000506172746974696F6E204C42412042655F
:1001300067696E3A20256C750D0A0000F76A4C0F4E
:10014000F66E010EF7220900F55012005379737410
:10015000656D2069733A2046415433320D0A000020
:10016000F76A700FF66E010EF7220900F5501200C3
:1001700053797374656D2069733A20464154313662
:100180000D0A0000F76A940FF66E010EF7220900BF
:10019000F55012004D656D6F727920666F726D615A
:1001A00074206E6F74204641543136206F722046A1
:1001B000415433320D0A0000F76AC80FF66E010E83
:1001C000F7220900F55012004279746573207065BA
:1001D0007220736563746F723A20256C750D0A0086
:1001E000F76AF00FF66E010EF7220900F5501200C3
:1001F000536563746F72732070657220636C7573DE
:100200007465723A2025750D0A00F76A1A0FF66EAA
:10021000020EF7220900F55012004E756D626572EC
:10022000206F6620726573657276656420736563FE
:10023000746F72733A20256C750D0A00F76A4C0FC3
:10024000F66E020EF7220900F55012004E756D622F
:100250006572206F6620464154733A2025750D0A59
:100260000000F76A720FF66E020EF7220900F550D1
:100270001200536563746F7273207065722046417B
:10028000543A20256C750D0A0000F76A9A0FF66E35
:10029000020EF7220900F5501200526F6F742064AD
:1002A00069726563746F7279206669727374206312
:1002B0006C75737465723A20256C750D0A00F76AC7
:1002C000CE0FF66E020EF7220900F55012004641DD
:1002D0005420626567696E204C42413A20256C7556
:1002E0000D0A0000F76AF40FF66E020EF7220900FD
:1002F000F55012004461746120626567696E204C9C
:1003000042413A20256C750D0A00F76A1A0FF66E05
:10031000030EF7220900F5501200526F6F7420444B
:1003200069726563746F7279204C42413A20256C82
:10033000750D0A00F76A440FF66E030EF7220900E6
:10034000F55012004469723A0000F76A5A0FF66ECF
:10035000030EF7220900F5501200466972737420EB
:100360004C42413A20256C750D0A0000F76A7C0F5B
:10037000F66E030EF7220900F550120046697273FB
:100380007420436C75737465723A20256C750D0A80
:100390000000F76AA20FF66E030EF7220900F5506F
:1003A000120046696C653A00F76AB80FF66E030EE4
:1003B000F7220900F550120053697A653A20256C3E
:1003C000752062797465730D0A00F76ADA0FF66EAC
:1003D000030EF7220900F550120053686F77696E1B
:1003E000672066696C6527732066697273742033B1
:1003F000322062797465730D0A0D0A00F76A0C0FDA
:10040000F66E040EF7220900F55012004E6F206DB3
:100410006F72652066696C657320696E20726F6FFC
:1004200074206469726563746F7279210D0A00002B
:10043000939E8A9E080E016E00D00000018E10D09F
:10044000019E0201B1330001D8B08A8ED8A08A9EE5
:10045000018C06D0019C012EF4D700D000008A8EBA
:10046000080EE96EE92EFED7000001BEE9D701BCF7
:10047000F1D7000CFF0E03010D6F0F0E0E6FC95068
:10048000FF0EC96EC7A0FED70C51C95C07E00D5125
:10049000D8B40E070D2FF3D70E53F1E10D5306E13B
:1004A0000E5304E1010E016E04D003D0000E016E64
:1004B00000D00001000C0201A16BA1510001A2DDDE
:1004C0000201A12B006EB16F0001B2DF1A0E020112
:1004D000A15DF3E1030EA26F2E0EB16F0001A8DF44
:1004E0000201A22FF9D70D0EB16F0001A1DF0A0E94
:1004F0000201B16F00019CDFC69A949E9380939293
:10050000200EC66E400EC76E0201A16BA151000104
:1005100090DD0201A12B006EB16F000189DF1F0E7B
:100520000201A15DF3E1030EA26F2E0EB16F000177
:100530007FDF0201A22FF9D70D0EB16F000178DF26
:100540000A0E0201B16F000173DF929A898A0201DB
:10055000A06BA051090807E3C950FF0EC96EC7A0E0
:10056000FED7A02BF6D7929A899AC950400EC96E31
:10057000C7A0FED7C950C96AC7A0FED7C950C96A6B
:10058000C7A0FED7C950C96AC7A0FED7C950C96A5B
:10059000C7A0FED7C950950EC96EC7A0FED7010EE1
:1005A00003010C6F000166DF012C12D00201A16B68
:1005B000A151000157DD0201A12B006EB16F0001B6
:1005C00037DF0E0E0201A15DF3E1010E016E8FD047
:1005D0000201A06BA03D01D026D003010C6B0001ED
:1005E00049DF012C01D002D002011DD0C950410EBB
:1005F000C96EC7A0FED7C950C96AC7A0FED7C950E7
:10060000C96AC7A0FED7C950C96AC7A0FED7C950DA
:10061000C96AC7A0FED7C950FF0EC96EC7A0FED7D2
:100620000201A02BD7D7A051FD0811E2A16BA15167
:10063000000128DD0201A12B006EB16F0001F8DE80
:100640000E0E0201A15DF3E1010E016E50D0929AEF
:10065000898AC950FF0EC96EC7A0FED7929A899A9F
:10066000C950500EC96EC7A0FED7C950C96AC7A0ED
:10067000FED7C950C96AC7A0FED7C950020EC96EBD
:10068000C7A0FED7C950C96AC7A0FED7C950FF0E80
:10069000C96EC7A0FED703010C6B0001EBDE012C75
:1006A00013D00201A16BA1510001FCDC0201A12BBE
:1006B000006EB16F0001BCDE0E0E0201A15DF3E120
:1006C000010E016E14D00001929A898A0201A16B79
:1006D000A1510001F7DC0201A12B006EB16F0001F6
:1006E000A7DE3A0E0201A15DF3E1000E016E0001EA
:1006F00073EF0BF0929A899AD89006C307F305C35B
:1007000006F304C305F30301046B05370637073707
:1007100007C308F306C309F305C30AF304C30BF3C5
:10072000C950510EC96EC7A0FED7C95008C3C9FF32
:10073000C7A0FED7C95009C3C9FFC7A0FED7C9507B
:100740000AC3C9FFC7A0FED7C9500BC3C9FFC7A0C2
:10075000FED7C950FF0EC96EC7A0FED70C6B0001B3
:1007600089DE012C03D0010E016E0CD0FE0E0301B8
:100770000C6F00017FDE012C03D0010E016E02D050
:10078000000E016EE0EF03F0C950FF0EC96EC7A066
:10079000FED7C950FF0EC96EC7A0FED7929A898AAC
:1007A000C950FF0EC96EC7A0FED7F9EF03F001C311
:1007B00007F300C306F3FFC205F3FEC204F39AD7A2
:1007C0000301036B026B0351010811E3050E0225BF
:1007D000E96E000E0321EA6EC950FF0EC96EC7A074
:1007E000FED7C9CFEFFF022BD8B4032BECD7000103
:1007F000CBD7010E016E000C02015C91050EA32502
:10080000E96E000EA421EA6EEF50800803E0000EAE
:10081000016E68D0040EA325A56F000EA421A66F5B
:10082000050EA525E96E000EA621EA6EEFCF5DF25A
:100830005D51040806E05D51060803E05D510E08B5
:1008400002E15C935C815D510B0803E05D510C0893
:1008500002E15C835C815CB103D0000E016E42D08A
:100860000B0EA325A56F000EA421A66F050EA525CE
:10087000E96E000EA621EA6EEFCFA7F20A0EA325BD
:10088000A86F000EA421A96F050EA825E96E000E21
:10089000A921EA6EEFCFAAF2090EA325AB6F000ED5
:1008A000A421AC6F050EAB25E96E000EAC21EA6EFB
:1008B000EFCFADF2080EA325AE6F000EA421AF6FEF
:1008C000050EAE25E96E000EAF21EA6EEFCFB0F255
:1008D000A7C236F2AAC235F2ADC234F2B0C233F2C8
:1008E000010E016E00019BEF04F00301016B006B30
:1008F0000201FF6BFE6B00015ADF02010351550834
:1009000003E10451AA0803E0000E016E26D05C91B9
:10091000A06BA051030817E3A051100DF350BE0FB8
:10092000A16F010EA26FD8B0A22BA2C2A4F2A1C2E5
:10093000A3F2000161D7015203E0020104D00001DB
:100940000201A02BE6D75CB106D0366B356B346B59
:10095000336B5C835C81010E016E000175EF0BF05F
:10096000006A016A026A036A03010E6B0F6B106B67
:10097000116B0D510C110B110A112CE0200E126F8E
:10098000D89006370737083709370E370F37103733
:1009900011370D51115D08E10C51105D05E10B514E
:1009A0000F5D02E10A510E5D0FE30A510E5F0B511C
:1009B000D8A00B3D0F5F0C51D8A00C3D105F0D511E
:1009C000D8A00D3D115FD8800036013602360336BF
:1009D000122FD6D7030EEA6E0E0EE96E0001000C40
:1009E000E9500201A96F3B0EB06F9A0EAF6FCA0EAD
:1009F000AE6FAD6B0A0EAB6FA8C209F3A7C208F3C6
:100A0000A6C207F3A5C206F3B0C20DF3AFC20CF342
:100A1000AEC20BF3ADC20AF30001A2DF0150EFCF6B
:100A2000A5F2ECCFA6F2ECCFA7F2ECCFA8F20052E1
:100A300013E10201AB51010AD8A402D000010CD08D
:100A4000A9510CE00F0BAB5D01E00EE2A9BF0CD089
:100A5000A9BD04D0200E03D00201A96B300E0026E0
:100A600000C0B1F20001E4DCB0C209F3AFC208F388
:100A7000AEC207F3ADC206F303010D6B0C6B0B6B3B
:100A80000A0E0A6F00016CDF03C0B0F202C0AFF2C1
:100A900001C0AEF200C0ADF20201AB2FADD7000134
:100AA000000C03010E6B0F6B010E106FDA6AD96A2E
:100AB000030E136F060E126F030EEA6E0A0EE96E36
:100AC00013C3E2FF12C3E1FF10C311F3D890E55046
:100AD000EE02F3500E23F4500F23112FF7D70EC35D
:100AE000DEFF0FC30EF30F6BD8B00F2B122BD8B451
:100AF000132B102B10510508DFE10001000C36C24A
:100B000001F335C200F334C2FFF233C2FEF24FDE0E
:100B100002013F6B0351550803E10451AA0803E0A9
:100B2000000E016E9DD011C026F210C025F212C039
:100B300027F214C029F213C028F215C02AF25CA3D0
:100B400009D02CC02EF22BC02DF22AC02CF229C0C5
:100B50002BF249D01CC02CF21BC02BF22D6B2E6B3C
:100B600017C0A1F216C0A0F2A26BA36B1634A46F3B
:100B70001734A56FA235A66FA335A76FA437A53785
:100B8000A637A737A437A537A637A737A437A53781
:100B9000A637A737A437A537A637A737E00EA4177F
:100BA00025C200F026C201F0026A036A03C0ABF25C
:100BB00002C0AAF226C2A9F225C2A8F2A7C209F36E
:100BC000A6C208F3A5C207F3A4C206F303C00DF33F
:100BD00002C00CF326C20BF325C20AF30001C0DEEB
:100BE00000C03FF20201026A036A28513325376FC1
:100BF00029513421386F02503521396F0350362185
:100C00003A6F0301096B086B076B2AC206F32EC209
:100C10000DF32DC20CF32CC20BF32BC20AF300010F
:100C200040DF0050020137253B6F015038213C6FF7
:100C3000025039213D6F03503A213E6F5CA309D029
:100C400034C032F233C031F232C030F231C02FF250
:100C500005D0326B316B306B020E2F6F010E016EBF
:100C60000001D9EF0BF0EACFA9F2E9CFA8F2020117
:100C7000A239F009A46FA427E20FA56F320FA76F66
:100C8000A2510F0BA527A527A727E90FA66FA62717
:100C9000A627A1390F0BA627A727A637A737A71F77
:100CA000A737A1510F0BA727A437070EA36F0A0E72
:100CB000A607A727FDE3A507A627FDE3A407A52709
:100CC000FDE3A307A427FDE3020EEA6EA30EE96E7F
:100CD000070EA815A89DE926A70EE95CD8B4A88D33
:100CE000EF50006E08E1A8BD06D0A8B916D0A8B78D
:100CF00002D0200E03D0A887A899300E0026EACF94
:100D0000A2F2E9CFA1F200C0B1F2000118EC02F0AA
:100D1000A2C2EAFFA1C2E9FF0201EE50A8ADDCD7F2
:100D20000001000C0201A451016AA35D03E2A3C209
:100D300000F00CD0006A080EA56FA3370036A4514E
:100D4000005CD8B0006E0136A52FF7D70001000C6B
:100D50000150A1C2A3F2640E0201A46F0001E2DF00
:100D600000C0A1F20150300E08E10201A2A310D090
:100D7000A2B70ED0A2B9200E04D00201A297A29968
:100D8000A281012601C0B1F2000118EC02F00201BB
:100D9000A1C2A3F20A0EA46F0001C4DF00C0A1F239
:100DA0000150300E08E10201A2B70BD0A2A109D078
:100DB000A2B9200E0001012601C0B1F218EC02F028
:100DC0000201300EA127A1C2B1F2000118EC02F01D
:100DD000000C020E0201EA5DEE6F000EEB59EF6FA0
:100DE000000EEC59F06F000EED59F16F27C200F0C4
:100DF000016A026A036A03C0F5F202C0F4F201C09C
:100E0000F3F227C2F2F2E8CF09F3F0C208F3EFC21F
:100E100007F3EEC206F303C00DF302C00CF301C0EA
:100E20000BF327C20AF300013CDE02013B5100260E
:100E30003C5101223D5102223E5103220001000C8F
:100E4000A3C243F2A2C242F2A1C241F2A0C240F246
:100E500043C2EDF242C2ECF241C2EBF240C2EAF20E
:100E6000B8DF03C047F202C046F201C045F200C03D
:100E700044F20201486B4A6B496B4B934B81000172
:100E800076EF0DF00201C66BC035C16FC635C26F7B
:100E9000C137C237C137C237C137C237C137C2378E
:100EA000E00EC117C46BC36BC45321E1C3511F08CB
:100EB0001EE3050EC325016E020EC421036EC3514D
:100EC000C125C76FC451C221C86F050EC725E96E81
:100ED000000EC821EA6EEFCFC9F203C0EAFF01C0DD
:100EE000E9FFC9C2EFFFC32BD8B4C42BDDD7000183
:100EF00063EF09F00201055304E1010E016E04D015
:100F000003D0000E016E00D00001000C020110C2DF
:100F100001F00001000CFADF01C0C0F20201C03B89
:100F2000F00EC017C051F00804E1000E016E04D0AD
:100F300003D0010E016E00D00001B3EF07F0DADF3D
:100F4000015207E002014B83000E016E20D01FD03A
:100F5000000102010551E50804E1010E016E17D000
:100F600016D00001D8D701520EE0D0DF01C0C0F288
:100F7000020101A803D0040E016E09D0030E016E18
:100F800006D005D00001020E016E020100D0000162
:100F900064EF09F00201C26BC2510A0819E3036A47
:100FA000C251C025016EC151032203C0C4F2036ABD
:100FB000C251050FE96E020E0320EA6EEFCFC5F2B3
:100FC000C4C2EAFF01C0E9FFC5C2EFFFC22BE4D7EC
:100FD000036AC251C025E96EC1510320EA6EEF6A6F
:100FE000000171EF09F01AC203F019C202F020C229
:100FF00001F01FC200F0000C0201C26BC2510708D1
:1010000019E3036AC251C025016EC151032203C016
:10101000C4F2036AC251050FE96E020E0320EA6EA4
:10102000EFCFC5F2C4C2EAFF01C0E9FFC5C2EFFFBE
:10103000C22BE4D7080EC025E96E000EC121EA6E6E
:101040002E0EEF6E080EC26FC2510A081AE3010E8F
:10105000C225036AC025016EC151032203C0C5F237
:10106000036AC251050FE96E020E0320EA6EEFCF4C
:10107000C6F2C5C2EAFF01C0E9FFC6C2EFFFC22B3C
:10108000E3D70001A1EF09F024C203F023C202F06C
:1010900022C201F021C200F0A2EF09F00301016BAE
:1010A000006B26C2FFF225C2FEF20131036E003151
:1010B000026E02012631016E2531006E03320232CA
:1010C000013200323F0E031603C005F302C004F3E1
:1010D00001C003F300C002F3EDC209F3ECC208F350
:1010E000EBC207F3EAC206F303C00DF302C00CF330
:1010F00001C00BF300C00AF3000132DC03C0F1F2BF
:1011000002C0F0F201C0EFF200C0EEF20201EE51B7
:101110003725F26FEF513821F36FF0513921F46F19
:10112000F1513A21F56F0301016B006B26C2FFF20A
:1011300025C2FEF20131036E0031026E020126313A
:10114000016E2531006E03320232013200323F0E51
:10115000031603C005F302C004F301C003F300C08B
:1011600002F3F1C209F3F0C208F3EFC207F3EEC2D3
:1011700006F303C00DF302C00CF301C00BF300C073
:101180000AF300018EDC00500201EA5DF66F0150A7
:10119000EB59F76F0250EC59F86F0350ED59F96FA6
:1011A000F635FA6FF735FB6FF835FC6FF935FD6FE3
:1011B000FA37FB37FC37FD37FC0EFA17F5C201F39F
:1011C000F4C200F3F3C2FFF2F2C2FEF20001D7EC68
:1011D00003F0030E0201FA25FE6F000EFB21FF6FE4
:1011E000000EFC21000E0201FD21050E0201FE256C
:1011F000E96E000EFF21EA6EEFCF02F3020EFA2530
:101200000301036F000E0201FB210301046F000EB6
:101210000201FC21000E0201FD210301050E032540
:10122000E96E000E0421EA6EEFCF07F3010E020112
:10123000FA250301086F000E0201FB210301096F6B
:10124000000E0201FC21000E0201FD210301050E2A
:101250000825E96E000E0921EA6EEFCF0CF3050EAA
:101260000201FA25E96E000EFB21EA6EEFCF0DF3C5
:1012700002C303F007C302F00CC301F00DC300F07A
:101280000001000C0201BF91B26BB66BB56BB46B81
:10129000B36BBE6BBD6BBC6BBB6BBA6BB96BB86B26
:1012A000B76B47C201F346C200F345C2FFF244C226
:1012B000FEF20001D7EC03F002014BA1BFD048C2FF
:1012C000C0F20001DFD53BD60150040A03E0070A53
:1012D0002DE065D0020E0201C16FA60EC06F0001A5
:1012E00059D614DE01C0B2F27EDE03C0BEF202C0E7
:1012F000BDF201C0BCF200C0BBF2BEC2EDF2BDC285
:10130000ECF2BCC2EBF2BBC2EAF263DD02013F5178
:101310000024B36F000E0120B46F000E0220B56FE1
:10132000000E0320B66FBF81000139D0EFDD015000
:10133000200834E1020E0201C16FA60EC06F000149
:101340005BD6A2D603C0BAF202C0B9F201C0B8F2AD
:1013500000C0B7F2DBDD01C0B2F245DE03C0BEF271
:1013600002C0BDF201C0BCF200C0BBF2BEC2EDF2D1
:10137000BDC2ECF2BCC2EBF2BBC2EAF22ADD020152
:101380003F510024B36F000E0120B46F000E022005
:10139000B56F000E0320B66FBF81000100D00201BF
:1013A000482B48510F0843E2486B492BD8B44A2BCD
:1013B0004A530CE12751495D09E2010E4427D8B098
:1013C000452BD8B4462BD8B4472B25D04A6B496B54
:1013D00043C2EDF242C2ECF241C2EBF240C2EAF289
:1013E00000015CDE03C043F202C042F201C041F2E0
:1013F00000C040F243C2EDF242C2ECF241C2EBF255
:1014000040C2EAF2E6DC03C047F202C046F201C085
:1014100045F200C044F247C201F346C200F345C2A0
:10142000FFF244C2FEF20001D7EC03F0020100011A
:1014300061DD015204E10201BFA141D70001A60E06
:10144000016E020E026E78EF0DF0B8C24FF2B7C215
:101450004EF2B6C24DF2B5C24CF24FC2EDF24EC2E0
:10146000ECF24DC2EBF24CC2EAF2B3DC02013F51A6
:101470000024506F000E0120516F000E0220526FA9
:10148000000E0320536F556B546B596B586B576BA1
:10149000566B5B6B5A6B4B85000150EF0FF00201EE
:1014A000E66BE76BE46BE36BE58153C201F352C279
:1014B00000F351C2FFF250C2FEF20001D7EC03F07C
:1014C00002014BA5C1D0E96BE86BC25309E1C153DE
:1014D00007E1E951C05D3CE303E1BF51E85D38E25B
:1014E000010E5627D8B0572BD8B4582BD8B4592B47
:1014F0005951BA5D29E30BE15851B95D25E307E184
:101500005751B85D21E303E15651B75D1DE3C30EAA
:10151000E825016E020EE921036EE8515A25EC6FB1
:10152000E9515B21ED6F050EEC25E96E000EED2112
:10153000EA6EEFCFEEF203C0EAFF01C0E9FFEEC2B0
:10154000EFFFE62BD8B4E72BE82BD8B4E92BBDD7B7
:10155000E7C2E4F2E6C2E3F2E6515A27E7515B2321
:101560005B5101084AE25B6B5A6B542BD8B4552B84
:1015700055530CE12751545D09E2010E5027D8B0B4
:10158000512BD8B4522BD8B4532B2AD0556B546B53
:101590004FC2EDF24EC2ECF24DC2EBF24CC2EAF297
:1015A00000017CDD03C04FF202C04EF201C04DF2DB
:1015B00000C04CF24FC2EDF24EC2ECF24DC2EBF263
:1015C0004CC2EAF206DC02013F510024506F000ECB
:1015D0000120516F000E0220526F000E0320536F46
:1015E00053C201F352C200F351C2FFF250C2FEF2E5
:1015F0000001D7EC03F015D00201BA51595D11E397
:101600000BE1B951585D0DE307E1B851575D09E3AE
:1016100003E1B751565D05E3FF0E4F6F4E6F4D6FFF
:101620004C6F02014F51FF080EE30BE14E51FF08D2
:101630000AE307E14D51FF0806E303E14C51F708C7
:1016400002E3E59101D0E581C30E016E020E026E48
:1016500000018BEF0FF00201A2BF12D00F0E006E3F
:10166000A13900160A0E005C03E2300E002602D0FB
:10167000A251002600C0B1F2000118EC02F00201F4
:101680000F0EA1170A0EA15D02E2300E02D0A29F3A
:10169000A251A127A1C2B1F2000118EC02F0BDEFE6
:1016A0000FF002014B950001DEEF0FF002014B91AC
:1016B0000001F2EF0FF0F86AD09EEA6AE96A939EA1
:1016C0008A8EC69A949E93809392200EC66E000EC8
:1016D000C56EC150C00B0F09C16E070EB46E000E6F
:1016E000926E5BEF02F075EF04F00201A06BA05167
:1016F000000188EC00F00201A02B006EB16F000128
:1017000018EC02F0150E0201A05DF1E1410EE96E48
:1017100036C2A8F235C2A7F234C2A6F233C2A5F28D
:101720000001F0EC04F00D0E0201B16F000118ECA5
:1017300002F00A0E0201B16F000118EC02F0020182
:101740005CA124D05CA311D0A06BA05100019EEC41
:1017500000F00201A02B006EB16F000118EC02F046
:10176000120E0201A05DF1E110D0A06BA0510001AA
:10177000B0EC00F00201A02B006EB16F000118EC7C
:1017800002F0120E0201A05DF1E110D0A06BA05199
:101790000001C2EC00F00201A02B006EB16F00014D
:1017A00018EC02F0220E0201A05DF1E100017FEFD2
:1017B00005F0012C04EF10F00201A06BA051000114
:1017C000DCEC00F00201A02B006EB16F000118EC00
:1017D00002F0120E0201A05DF1E1100EE96E26C2C8
:1017E000A2F225C2A1F2000133EC06F00D0E0201B7
:1017F000B16F000118EC02F00A0E0201B16F000196
:1018000018EC02F00201A06BA0510001F0EC00F016
:101810000201A02B006EB16F000118EC02F0150E52
:101820000201A05DF1E127C2A1F21B0EA26F00012F
:10183000A8EC06F00D0E0201B16F000118EC02F0E9
:101840000A0E0201B16F000118EC02F00201A06B58
:10185000A051000105EC01F00201A02B006EB16F58
:10186000000118EC02F01C0E0201A05DF1E1100E67
:10187000E96E29C2A2F228C2A1F2000133EC06F0FF
:101880000D0E0201B16F000118EC02F00A0E020108
:10189000B16F000118EC02F00201A06BA051000131
:1018A0001EEC01F00201A02B006EB16F000118ECDC
:1018B00002F0100E0201A05DF1E12AC2A1F21B0E9E
:1018C000A26F0001A8EC06F00D0E0201B16F00013D
:1018D00018EC02F00A0E0201B16F000118EC02F0E0
:1018E0000201A06BA051000131EC01F00201A02B1C
:1018F000006EB16F000118EC02F0110E0201A05D44
:10190000F1E1410EE96E2EC2A8F22DC2A7F22CC25F
:10191000A6F22BC2A5F20001F0EC04F00D0E0201BC
:10192000B16F000118EC02F00A0E0201B16F000164
:1019300018EC02F00201A06BA051000145EC01F08F
:101940000201A02B006EB16F000118EC02F01E0E18
:101950000201A05DF1E1410EE96E32C2A8F231C28E
:10196000A7F230C2A6F22FC2A5F20001F0EC04F0FB
:101970000D0E0201B16F000118EC02F00A0E020117
:10198000B16F000118EC02F00201A06BA051000140
:101990005FEC01F00201A02B006EB16F000118ECAA
:1019A00002F00F0E0201A05DF1E1410EE96E3AC2B4
:1019B000A8F239C2A7F238C2A6F237C2A5F20001D6
:1019C000F0EC04F00D0E0201B16F000118EC02F012
:1019D0000A0E0201B16F000118EC02F002013F5142
:1019E0003B25A06F000E3C21A16F000E3D21A26F90
:1019F000000E3E21A36FA46BA451000172EC01F014
:101A00000201A42B006EB16F000118EC02F0100E61
:101A10000201A45DF1E1410EE96EA3C2A8F2A2C2E7
:101A2000A7F2A1C2A6F2A0C2A5F20001F0EC04F058
:101A30000D0E0201B16F000118EC02F00A0E020156
:101A4000B16F000118EC02F032C2EDF231C2ECF2DB
:101A500030C2EBF22FC2EAF2E9EC06F003C0A3F2C7
:101A600002C0A2F201C0A1F200C0A0F20201A46B68
:101A7000A451000185EC01F00201A42B006EB16FAE
:101A8000000118EC02F0140E0201A45DF1E1410E18
:101A9000E96EA3C2A8F2A2C2A7F2A1C2A6F2A0C296
:101AA000A5F20001F0EC04F00D0E0201B16F00018F
:101AB00018EC02F00A0E0201B16F000118EC02F0FE
:101AC0000D0E0201B16F000118EC02F00A0E0201C6
:101AD000B16F000118EC02F032C2A3F231C2A2F2DF
:101AE00030C2A1F22FC2A0F220EF07F042EF09F0BE
:101AF00002C0A1F2020101C0A0F2020EEA6E640E61
:101B0000E96E02C0E2FF01C0E1FF190E016EE6CFEF
:101B1000EEFF012EFCD770A996D0A06BA05100015A
:101B20009AEC01F00201A02B006EB16F000118ECDD
:101B300002F0040E0201A05DF1E15F6B5E6B5F538A
:101B400015E15E510B0812E3640E5E25E96E020E8C
:101B50005F21EA6EEFCFA0F2A0C2B1F2000118EC53
:101B600002F002015E2BD8B45F2BE9D70D0EB16FE6
:101B7000000118EC02F00A0E0201B16F000118EC2E
:101B800002F00201A06BA0510001A5EC01F00201DE
:101B9000A02B006EB16F000118EC02F00B0E0201D9
:101BA000A05DF1E1410EE96E74C2A8F273C2A7F222
:101BB00072C2A6F271C2A5F20001F0EC04F00D0EA3
:101BC0000201B16F000118EC02F00A0E0201B16FC0
:101BD000000118EC02F00201A06BA0510001B6EC6C
:101BE00001F00201A02B006EB16F000118EC02F0B1
:101BF0000F0E0201A05DF1E1410EE96E7CC2A8F278
:101C00007BC2A7F27AC2A6F279C2A5F20001F0EC7B
:101C100004F00D0E0201B16F000118EC02F00A0E83
:101C20000201B16F000118EC02F00D0E0201B16F5C
:101C3000000118EC02F00A0E0201B16F000118EC6D
:101C400002F0C8D10201755307E1765305E17753DD
:101C500003E17853D8B4BFD1A06BA0510001C9EC07
:101C600001F00201A02B006EB16F000118EC02F030
:101C7000050E0201A05DF1E15F6B5E6B5F5315E144
:101C80005E510B0812E3640E5E25E96E020E5F21C1
:101C9000EA6EEFCFA0F2A0C2B1F2000118EC02F0A0
:101CA00002015E2BD8B45F2BE9D70D0EB16F000196
:101CB00018EC02F00A0E0201B16F000118EC02F0FC
:101CC0000201A06BA0510001D4EC01F00201A02B95
:101CD000006EB16F000118EC02F0060E0201A05D6B
:101CE000F1E1410EE96E78C2A8F277C2A7F276C29E
:101CF000A6F275C2A5F20001F0EC04F0090E020193
:101D0000A16FA1510001D4EC01F00201A12B006EE2
:101D1000B16F000118EC02F0110E0201A15DF1E1BA
:101D2000A06BA0510001A5EC01F00201A02B006EF8
:101D3000B16F000118EC02F00B0E0201A05DF1E1A1
:101D4000410EE96E74C2A8F273C2A7F272C2A6F283
:101D500071C2A5F20001F0EC04F00D0E0201B16FAA
:101D6000000118EC02F00A0E0201B16F000118EC3C
:101D700002F00201A06BA0510001B6EC01F00201DB
:101D8000A02B006EB16F000118EC02F00F0E0201E3
:101D9000A05DF1E1410EE96E7CC2A8F27BC2A7F220
:101DA0007AC2A6F279C2A5F20001F0EC04F00D0EA1
:101DB0000201B16F000118EC02F00A0E0201B16FCE
:101DC000000118EC02F00D0E0201B16F000118ECD9
:101DD00002F00A0E0201B16F000118EC02F00201DC
:101DE000A06BA0510001E5EC01F00201A02B006EF8
:101DF000B16F000118EC02F01D0E0201A05DF1E1CF
:101E0000030EA16F2E0EB16F000118EC02F002015B
:101E1000A12FF8D71D0EA26FA2510001E5EC01F031
:101E20000201A22B006EB16F000118EC02F0210E2E
:101E30000201A25DF1E164C2A0F265C2A1F266C234
:101E4000A2F267C2A3F268C2A4F269C2A5F26AC292
:101E5000A6F26BC2A7F26CC2A8F26DC2A9F26EC262
:101E6000AAF26FC2ABF270C2ACF271C2ADF272C232
:101E7000AEF273C2AFF274C2B0F275C2B1F276C202
:101E8000B2F277C2B3F278C2B4F279C2B5F27AC2D2
:101E9000B6F27BC2B7F27CC2B8F2000125EF0AF0BD
:101EA00064C2A6F265C2A7F266C2A8F267C2A9F22E
:101EB00068C2AAF269C2ABF26AC2ACF26BC2ADF2FE
:101EC0006CC2AEF26DC2AFF26EC2B0F26FC2B1F2CE
:101ED00070C2B2F271C2B3F272C2B4F273C2B5F29E
:101EE00074C2B6F275C2B7F276C2B8F277C2B9F26E
:101EF00078C2BAF279C2BBF27AC2BCF27BC2BDF23E
:101F00007CC2BEF20201C26BC16BC06B200EBF6F00
:101F100000014FEF0AF002C0A1F2020101C0A0F2DD
:101F2000020EEA6E7D0EE96E02C0E2FF01C0E1FF23
:101F3000230E016EE6CFEEFF012EFCD7636B626BC2
:101F40005F6B5E6B5F5337E15E51010834E3616B99
:101F5000606B615320E160510F081DE37D0E622527
:101F6000E96E020E6321EA6EEFCFA0F2A0C2A1F2E9
:101F7000370EA26F00012BEF0BF0200E0201B16FA4
:101F8000000118EC02F00201622BD8B4632B602B25
:101F9000D8B4612BDED70D0EB16F000118EC02F042
:101FA0000A0E0201B16F000118EC02F002015E2B73
:101FB000D8B45F2BC7D7000151EF0BF00D0E020113
:101FC000B16F000118EC02F00A0E0201B16F0001BE
:101FD00018EC02F002014BB302D0000187D50001DA
:101FE00056EF0BF00201A06BA0510001FEEC01F0D6
:101FF0000201A02B006EB16F000118EC02F0220E5E
:0C2000000201A05DF1E10001FFD7030028
:020000040030CA
:0E000000200C191E008381000FC00FE00F407E
:00000001FF
;PIC18F2550
