:020000040000FA
:060000004DEF1CF01200A0
:0A0006000100F63800006A00000057
:0400100002000000EA
:0C001400D9CFE6FFE1CFD9FF040EE126B2
:10002000FB0EDBCF00F0000E00C0DFFF010EDB6A2D
:10003000020EDB6A030EDB6AD9CFE9FFDACFEAFFF3
:10004000EF50EE6AEFCFF4FFEE6EEF50F4CFEEFF1D
:10005000EF6EFC0EDBCF00F0016A026A036A00500B
:10006000DE120150DE120250DE120350DD12DD52AC
:10007000DD52D9CFE9FFDACFEAFFEF50EE6AEFCFDA
:10008000F4FFEE6EEF50F4CFEEFFEF6EFD0EDBCF20
:1000900000F0016A026A036A0050DE120150DE12AB
:1000A0000250DE120350DD12DD52DD52D9CFE9FFDE
:1000B000DACFEAFFEF50EE6AEFCFF4FFEE6EEF50CB
:1000C000F4CFEEFFEF6EFE0EDBCF00F0016A026AA6
:1000D000036A0050DE120150DE120250DE1203509D
:1000E000DD12DD52DD52DECF27F0DECF28F0DECF8D
:1000F00029F0DDCF2AF0DD52DD52040EE15C03E28F
:1001000000D0E16AE552E16EE552E7CFD9FF120077
:10011000D9CFE6FFE1CFD9FF020EE126FD0EDB507D
:10012000DE6EDD6AD9CFE9FFDACFEAFFEE50ED6E81
:10013000EF6AFE0EDB50DF12DECF00F0DDCF01F004
:1001400000C0F3FF01C0F4FF020EE15C03E200D047
:10015000E16AE552E16EE552E7CFD9FF1200D9CF4F
:10016000E6FFE1CFD9FF040EE126010EF36EFA0E91
:10017000DB5004E0D890F336E806FCE1F350006E63
:10018000016A026A036A00AE03D00168026803686C
:10019000D950FB0FE96EFF0EDA20EA6EEE50001622
:1001A000EE500116EE500216EE50031600C0DFFFAF
:1001B000010E01C0DBFF020E02C0DBFF030E03C015
:1001C000DBFFD9CFE9FFDACFEAFF010EEE1805E138
:1001D000EE5003E1EE5001E1EE5003E1010E03D0D9
:1001E00002D0000E00D0006E040EE15C02E2E16A73
:1001F000E552E16E0050E552E7CFD9FF1200D9CFAA
:10020000E6FFE1CFD9FF000EE66E050EE66ED9508F
:10021000FB0FE96EFF0EDA20EA6EEECFE6FFEECFBF
:10022000E6FFEECFE6FFEFCFE6FF3EEC16F0006E06
:10023000060EE15E0050E552E7CFD9FF1200D9CF9C
:10024000E6FFE1CFD9FF040EE126FE0EDB50200DC4
:10025000F3CFDEFFF4CFDDFF020EDB6A030EDB6AB5
:10026000020EDBCF00F0030EDBCF01F0200E005CAE
:10027000000E015825E2020EDBCF00F0030EDBCFAB
:1002800001F0DE500024E96EDD500120EA6E000E20
:10029000E926050EEA22EF50E66E020EDBCFE9FFFB
:1002A000030EDBCFEAFF000EE926070EEA22E55235
:1002B000E750EF6E020EDB2A030E01E3DB2AD0D7F4
:1002C000040EE15C02E2E16AE552E16EE552E7CF3D
:1002D000D9FF1200D9CFE6FFE1CFD9FFFB0EDBCF6C
:1002E000E9FFFC0EDBCFEAFFEF6AFD0EDBCFE9FF93
:1002F000FE0EDBCFEAFF000EE926050EEA22EF50E4
:10030000800802E0000EDED0040EE76EFD0EDBCFAB
:10031000E9FFFE0EDBCFEAFFE750E926000EEA22F6
:10032000000EE926050EEA22EF50E66EFB0EDBCF4B
:10033000E9FFFC0EDBCFEAFF020EE926000EEA22FF
:10034000E552E750EF6EFB0EDBCFE9FFFC0EDBCF93
:10035000EAFF020EE926000EEA22EF5004081AE036
:10036000FB0EDBCFE9FFFC0EDBCFEAFF020EE92636
:10037000000EEA22EF5006080DE0FB0EDBCFE9FF8E
:10038000FC0EDBCFEAFF020EE926000EEA22EF5058
:100390000E0810E1FB0EDBCFE9FFFC0EDBCFEAFF1E
:1003A000EE52EF6AFB0EDBCFE9FFFC0EDBCFEAFF7C
:1003B000010EEF6EFB0EDBCFE9FFFC0EDBCFEAFF99
:1003C000020EE926000EEA22EF500B080DE0FB0EAC
:1003D000DBCFE9FFFC0EDBCFEAFF020EE926000EC1
:1003E000EA22EF500C0811E1FB0EDBCFE9FFFC0E17
:1003F000DBCFEAFFEE52010EEF6EFB0EDBCFE9FF23
:10040000FC0EDBCFEAFF010EEF6EFB0EDBCFE9FF48
:10041000FC0EDBCFEAFFEF5002E1000E53D0080ED6
:10042000E76EFD0EDBCFE9FFFE0EDBCFEAFFE75004
:10043000E926000EEA22000EE926050EEA22EF5018
:10044000E66E090EE76EFD0EDBCFE9FFFE0EDBCF99
:10045000EAFFE750E926000EEA22000EE926050E23
:10046000EA22EF50E66E0A0EE76EFD0EDBCFE9FFE3
:10047000FE0EDBCFEAFFE750E926000EEA22000E6F
:10048000E926050EEA22EF50E66E0B0EE76EFD0E32
:10049000DBCFE9FFFE0EDBCFEAFFE750E926000ED7
:1004A000EA22000EE926050EEA22EF50E66EB2DDE2
:1004B000E552E552E552E55227C02AF728C02BF74E
:1004C000010E00D0E552E7CFD9FF1200D9CFE6FFE9
:1004D000E1CFD9FF020EE126E66AE66AE66AE66A3D
:1004E0008EDEE552E552E552E552550E0601FE5DFF
:1004F00003E1AA0EFF5D02E0000E55D0FD0EDBCF3A
:10050000E9FFFE0EDBCFEAFFEF6ADE6ADD6ADECFCF
:1005100000F0DDCF01F0040E005C000E015825E272
:10052000FD0EDBCFE6FFFE0EDBCFE6FFDECF00F0F9
:10053000DDCF01F0040ED89000360136E806FBE16D
:10054000BE0E0026010E012200C0E6FF01C0E6FF3C
:10055000C1DEE552E552E552E552000901E005D061
:10056000DF2A010E01E3DB2AD2D7FD0EDBCFE9FF44
:10057000FE0EDBCFEAFFEF5014E107012A6B2B6B75
:10058000FD0EDBCFE9FFFE0EDBCFEAFFEE52010EE0
:10059000EF6EFD0EDBCFE9FFFE0EDBCFEAFF010EB3
:1005A000EF6E010E00D0006E020EE15C02E2E16A25
:1005B000E552E16E0050E552E7CFD9FF1200D9CFE6
:1005C000E6FFE1CFD9FF2AC700F02BC701F0026A8E
:1005D000036A00C0E6FF01C0E6FF02C0E6FF03C0F9
:1005E000E6FF0DDEE552E552E552E5520701306BBC
:1005F000FF51E66EE66AFE51E66EE66A140E006E84
:10060000340E016E026A00C0E6FF01C0E6FF02C0C0
:10061000E6FFACEC1AF0036E070EE15E0350550ED8
:100620000601FE5D03E1AA0EFF5D02E0000EEFD0C1
:100630000BC5E6FF0CC5E6FF6BDDE552E552F3CFD7
:1006400020F7F4CF21F70DC522F70EC5E6FF0FC541
:10065000E6FF5EDDE552E552F3CF23F7F4CF24F752
:1006600010C525F7FD0EDBCFE9FFFE0EDBCFEAFF5D
:10067000EE52EF5012E024C5E6FF25C5E6FF26C581
:10068000E6FF27C5E6FFC6DCE552E552E552E55236
:1006900027C026F728C027F74ED016C5E6FF17C596
:1006A000E6FF36DDE552E552F3CF26F7F4CF27F724
:1006B00020C704F021C705F0066A076A04C0E6FFF8
:1006C00005C0E6FF06C0E6FF07C0E6FF11C5E6FF6E
:1006D00012C5E6FF1DDDE552E552E552E7CF07F012
:1006E000E552E7CF06F0E552E7CF05F0E552E7CF58
:1006F00004F0F3CF00F0F4CF01F0026A036A050EB4
:10070000D8900036013602360336E806F9E100C01B
:1007100027F001C028F002C029F003C02AF004C06D
:100720002CF005C02DF006C02EF007C02FF017ECFE
:100730001CF027C030F72AC700F02BC701F0026A6F
:10074000036A23C704F024C705F0066A076A045049
:10075000002605500122065002220750032200C045
:100760002CF701C02DF72CC704F02DC705F0066A41
:10077000076A26C70CF027C70DF00E6A0F6A25C757
:1007800008F0096A0A6A0B6A08C027F009C028F055
:100790000AC029F00BC02AF00CC02CF00DC02DF0BF
:1007A0000EC02EF00FC02FF07FEC1BF0045023245E
:1007B000006E05502420016E06502520026E075061
:1007C0002620036E00C02EF701C02FF7FD0EDBCFF1
:1007D000E9FFFE0EDBCFEAFFEE52EF5012E02CC530
:1007E000E6FF2DC5E6FF2EC5E6FF2FC5E6FF12DCAE
:1007F000E552E552E552E55227C028F728C029F70F
:1008000004D0020E0701286F296B010E00D0E552BB
:10081000E7CFD9FF1200D9CFE6FFE1CFD9FF2EC72E
:1008200004F02FC705F0066A076A22C70CF00D6AAC
:100830000E6A0F6AFB0EDBCF08F0FC0EDBCF09F06F
:10084000FD0EDBCF0AF0FE0EDBCF0BF0020E085ED2
:10085000000E095A0A5A0B5A08C027F009C028F09E
:100860000AC029F00BC02AF00CC02CF00DC02DF0EE
:100870000EC02EF00FC02FF07FEC1BF0045023248D
:10088000006E05502420016E06502520026E075090
:100890002620036E00C027F001C028F002C029F016
:1008A00003C02AF000D0E552E7CFD9FF12000701BC
:1008B000005103E1010E03D002D0000E00D012005F
:1008C00007010B5100D01200D9CFE6FFE1CFD9FFCD
:1008D000E652F6DFDF6EDF38F00BDF6EF00EDF5C26
:1008E00003E1000E03D002D0010E00D0E552E55224
:1008F000E7CFD9FF1200DBDF000906E00701010E98
:100900003D6F000E28D027D0E50E0701005D03E102
:10091000010E21D020D0D8DF00091BE0040EE66EC6
:10092000CFDF006E016A026A036A00C0E6FF01C001
:10093000E6FF02C0E6FF03C0E6FF11DC046E050E11
:10094000E15E0450000902E0040E05D0030E03D05E
:1009500002D0020E00D012001CC7E6FF1DC7E6FF42
:100960001EC7E6FF1FC7E6FF0AEC00F0E552E5529E
:10097000E552E55200D01200D9CFE6FFE1CFD9FF12
:10098000E652DF6A080EDF5C18E2DF50EA6A000F09
:10099000E96E070EEA22EF50E66EFD0EDBCFE9FFAF
:1009A000FE0EDBCFEAFFE552E750EF6EFD0EDB2ACD
:1009B000FE0E01E3DB2ADF2AE5D7FD0EDBCFE9FFE0
:1009C000FE0EDBCFEAFF2E0EEF6EFD0EDB2AFE0ED3
:1009D00001E3DB2A080EDF6E0B0EDF5C18E2DF504E
:1009E000EA6A000FE96E070EEA22EF50E66EFD0E8E
:1009F000DBCFE9FFFE0EDBCFEAFFE552E750EF6EFB
:100A0000FD0EDB2AFE0E01E3DB2ADF2AE5D7E552E5
:100A1000E552E7CFD9FF1200D9CFE6FFE1CFD9FFEA
:100A2000E652DF6A0B0EDF5C18E2DF50EA6A000F65
:100A3000E96E070EEA22EF50E66EFD0EDBCFE9FF0E
:100A4000FE0EDBCFEAFFE552E750EF6EFD0EDB2A2C
:100A5000FE0E01E3DB2ADF2AE5D7FD0EDBCFE9FF3F
:100A6000FE0EDBCFEAFFEF6AFD0EDB2AFE0E01E38E
:100A7000DB2AE552E552E7CFD9FF12001AC7E6FF9D
:100A80001BC7E6FF14C7E6FF15C7E6FF0AEC00F038
:100A9000E552E552E552E55200D01200D9CFE6FF0B
:100AA000E1CFD9FF100EE12620C700F021C701F0E9
:100AB000026A036A020ED890033202320132003217
:100AC000E806F9E100C02CF001C02DF002C02EF0C4
:100AD00003C02FF0FB0EDBCF27F0FC0EDBCF28F09E
:100AE000FD0EDBCF29F0FE0EDBCF2AF017EC1CF059
:100AF00027C0DEFF28C0DEFF29C0DEFF2AC0DDFFE1
:100B0000DD52DD522CC704F02DC705F0066A076AD6
:100B1000D9CFE9FFDACFEAFF0450EE24006E05508A
:100B2000EE20016E0650EE20026E0750EE20036E9E
:100B3000040E00C0DBFF050E01C0DBFF060E02C085
:100B4000DBFF070E03C0DBFFFB0EDBCF04F0FC0E68
:100B5000DBCF05F0FD0EDBCF06F0FE0EDBCF07F09E
:100B600020C727F021C728F0296A2A6A040E2C6EB4
:100B70002D6A2E6A2F6A17EC1CF0DFCF2CF0010EC5
:100B8000DBCF2DF0020EDBCF2EF0030EDBCF2FF0EC
:100B90007FEC1BF02350045C006E24500558016E5E
:100BA00025500658026E26500758036E080E00C0E6
:100BB000DBFF090E01C0DBFF0A0E02C0DBFF0B0EDC
:100BC00003C0DBFF080EDBCF27F0090EDBCF28F0D8
:100BD0000A0EDBCF29F00B0EDBCF2AF0040E2C6EB1
:100BE0002D6A2E6A2F6A7FEC1BF00C0E23C0DBFFF0
:100BF0000D0E24C0DBFF0E0E25C0DBFF0F0E26C03E
:100C0000DBFFD950040FE96EDACFEAFFEECFE6FF43
:100C1000EECFE6FFEECFE6FFEFCFE6FFFFEC00F012
:100C2000E552E552E552E5520C0EDBCFE9FF0D0E21
:100C3000DBCFEAFF000EE926050EEA22EF50E66E52
:100C4000010E006E016A026A036AD9500C0FE96E48
:100C5000DACFEAFFEE500026EE500122EE500222DB
:100C6000EE500322000E0024E96E050E0120EA6E0C
:100C7000EF50E66E020E046E056A066A076AD950E6
:100C80000C0FE96EDACFEAFFEE500426EE50052293
:100C9000EE500622EE500722000E0424E96E050EE7
:100CA0000520EA6EEF50E66E030E086E096A0A6AC6
:100CB0000B6AD9500C0FE96EDACFEAFFEE50082626
:100CC000EE500922EE500A22EE500B22000E0824AC
:100CD000E96E050E0920EA6EEF50E66E0AEC00F0B0
:100CE000E552E552E552E552100EE15C03E200D018
:100CF000E16AE552E16EE552E7CFD9FF1200D9CFA4
:100D0000E6FFE1CFD9FFFB0EDBCF31F7FC0EDBCFE7
:100D100032F7FD0EDBCF33F7FE0EDBCF34F731C7F2
:100D2000E6FF32C7E6FF33C7E6FF34C7E6FF73DDF1
:100D3000E552E552E552E55227C035F728C036F7AF
:100D400029C037F72AC038F70701396B3A6B3B6B7C
:100D50003D6B010E3C6FE552E7CFD9FF1200D9CFB2
:100D6000E6FFE1CFD9FF1B0EE126190EDB6A0C0E60
:100D7000DB6A0D0EDB6A0E0EDB6A0F0EDB6A100EED
:100D8000DB6A150EDB6A160EDB6A170EDB6A180EBD
:100D9000DB6A110EDB6A120EDB6A130EDB6A140EBD
:100DA000DB6A35C7E6FF36C7E6FF37C7E6FF38C759
:100DB000E6FFFFEC00F0E552E552E552E55207018F
:100DC0003C5101E139D139C7E6FF1FEC01F0E55292
:100DD00092DD030A66E0070A01E0D6D0D9CFE6FF2C
:100DE000DACFE6FF19DEE552E5526ADDE76E0C0E5A
:100DF000E7CFDBFF43DE150E27C0DBFF160E28C052
:100E0000DBFF170E29C0DBFF180E2AC0DBFF30C73F
:100E100004F0056A066A076A04C0E6FF05C0E6FF3B
:100E200006C0E6FF07C0E6FFD950150FE96EDACF1E
:100E3000EAFFEECFE6FFEECFE6FFEECFE6FFEFCF25
:100E4000E6FFE9DCE552E552E552E552E552E7CF2F
:100E500007F0E552E7CF06F0E552E7CF05F0E5529F
:100E6000E7CF04F0275000010424006E285005202D
:100E7000016E29500620026E2A500720036E0D0EC7
:100E800000C0DBFF0E0E01C0DBFF0F0E02C0DBFF58
:100E9000100E03C0DBFF010EF36E190EF3CFDBFF64
:100EA00073D00EDD20086FE1D9CFE6FFDACFE6FF81
:100EB00063DDE552E55250DD110E27C0DBFF120E57
:100EC00028C0DBFF130E29C0DBFF140E2AC0DBFF96
:100ED000F7DCE76E0C0EE7CFDBFFD0DD150E27C089
:100EE000DBFF160E28C0DBFF170E29C0DBFF180E34
:100EF0002AC0DBFF30C704F0056A066A076A04C02F
:100F0000E6FF05C0E6FF06C0E6FF07C0E6FFD950D2
:100F1000150FE96EDACFEAFFEECFE6FFEECFE6FF80
:100F2000EECFE6FFEFCFE6FF76DCE552E552E55285
:100F3000E552E552E7CF07F0E552E7CF06F0E5527C
:100F4000E7CF05F0E552E7CF04F027500001042475
:100F5000006E28500520016E29500620026E2A508E
:100F60000720036E0D0E00C0DBFF0E0E01C0DBFF7D
:100F70000F0E02C0DBFF100E03C0DBFF010EF36E8D
:100F8000190EF3CFDBFF00D00701392B39510F08C1
:100F90004CE2396B3A2B000E3B232251006E016A62
:100FA00000503A5D01503B5906E2352B000E3623C6
:100FB000372338232CD03A6B3B6B31C7E6FF32C75F
:100FC000E6FF33C7E6FF34C7E6FF68DDE552E552CA
:100FD000E552E55227C031F728C032F729C033F770
:100FE0002AC034F731C7E6FF32C7E6FF33C7E6FF52
:100FF00034C7E6FF10DCE552E552E552E55227C062
:1010000035F728C036F729C037F72AC038F735C773
:10101000E6FF36C7E6FF37C7E6FF38C7E6FFFFEC57
:1010200000F0E552E552E552E55241DC000904E1E9
:10103000190EDB5001E1C7D6D9CFE9FFDACFEAFFBD
:10104000EECF00F0EECF01F0EECF02F0EECF03F0E6
:10105000EECF04F0EECF05F0EECF06F0EECF07F0C6
:10106000EECF08F0EECF09F0EECF0AF0EECF0BF0A6
:10107000EECF0CF0EECF0DF0EECF0EF0EECF0FF086
:10108000EECF10F0EECF11F0EECF12F0EECF13F066
:10109000EECF14F0EECF15F0EECF16F0EECF17F046
:1010A000EFCF18F0D9CFE9FFDACFEAFFED50ED50DE
:1010B00018C0EDFF17C0EDFF16C0EDFF15C0EDFF26
:1010C00014C0EDFF13C0EDFF12C0EDFF11C0EDFF26
:1010D00010C0EDFF0FC0EDFF0EC0EDFF0DC0EDFF26
:1010E0000CC0EDFF0BC0EDFF0AC0EDFF09C0EDFF26
:1010F00008C0EDFF07C0EDFF06C0EDFF05C0EDFF26
:1011000004C0EDFF03C0EDFF02C0EDFF01C0EDFF25
:1011100000C0EFFF1B0EE15C03E200D0E16AE55284
:10112000E16EE552E7CFD9FF120007013C6B1200D8
:10113000D9CFE6FFE1CFD9FFFB0EDBCF3EF7FC0EA8
:10114000DBCF3FF7FD0EDBCF40F7FE0EDBCF41F7E5
:1011500030C700F0016A026A036A00C0E6FF01C0FE
:10116000E6FF02C0E6FF03C0E6FF3EC7E6FF3FC75B
:10117000E6FF40C7E6FF41C7E6FF0BEC04F0E5528F
:10118000E552E552E552E552E7CF03F0E552E7CFED
:1011900002F0E552E7CF01F0E552E7CF00F027502B
:1011A000000100240701426F2850000101200701BF
:1011B000436F2950000102200701446F2A500001AB
:1011C00003200701456F466B476B486B496B4A6BC1
:1011D0004B6B4C6B4D6B010E4E6FE552E7CFD9FF59
:1011E0001200D9CFE6FFE1CFD9FF270EE126230E6B
:1011F000DB6A240EDB6A200EDB6A210EDB6A010E3D
:10120000F36E220EF3CFDBFF42C7E6FF43C7E6FFD4
:1012100044C7E6FF45C7E6FFFFEC00F0E552E552A4
:10122000E552E55207014E5101E112D1250EDB6A6C
:10123000260EDB6A250EDBCF00F0260EDBCF01F099
:10124000026A036AD950E20FE96EFF0EDA20EA6EF5
:10125000EE50005CEE500158EE500258EE5003582C
:1012600040E20701482B000E49234A234B23D95063
:10127000F70FE96EFF0EDA20EA6E4851EE5C495135
:10128000EE584A51EE584B51EE5825E3250EDB50EF
:101290004C250F01E96E260EDB5007014D210F0191
:1012A000EA6E000EE926050EEA22EF50E66ED9CF6F
:1012B00000F0DACF01F0250EDB500024E96E260E97
:1012C000DB500120EA6EE552E750EF6E230EDB2A79
:1012D000240E01E3DB2A250EDB2A260E01E3DB2A9E
:1012E000A9D7230EDBCF29F0240EDBCF2AF0200E66
:1012F00029C0DBFF210E2AC0DBFF230EDBCF29F044
:10130000240EDBCF2AF0295007014C272A504D2309
:10131000FF0ED8804C55010E4D5575E24C6B4D6B50
:10132000462B000E47232251006E016A0050465D95
:101330000150475906E2422B000E43234423452324
:1013400053D0466B476B3EC7E6FF3FC7E6FF40C73B
:10135000E6FF41C7E6FF4EEC05F0E552E552E552E7
:10136000E55227C03EF728C03FF729C040F72AC002
:1013700041F730C700F0016A026A036A00C0E6FF65
:1013800001C0E6FF02C0E6FF03C0E6FF3EC7E6FF7E
:101390003FC7E6FF40C7E6FF41C7E6FF0BEC04F09E
:1013A000E552E552E552E552E552E7CF03F0E5524A
:1013B000E7CF02F0E552E7CF01F0E552E7CF00F0CA
:1013C0002750000100240701426F2850000101202E
:1013D0000701436F2950000102200701446F2A5082
:1013E000000103200701456F42C7E6FF43C7E6FF40
:1013F00044C7E6FF45C7E6FFFFEC00F0E552E552C3
:10140000E552E55213D0D950F70FE96EFF0EDA20FE
:10141000EA6EEE50485DEE504959EE504A59EE5092
:101420004B5904E33E693F6940694169F80E070181
:101430003E5DFF0E3F59FF0E4059FF0E415903E23A
:10144000220EDB6A05D0010EF36E220EF3CFDBFF16
:10145000D9CFE9FFDACFEAFFEECF00F0EECF01F00F
:10146000EECF02F0EECF03F0EECF04F0EECF05F0BA
:10147000EECF06F0EECF07F0EECF08F0EECF09F09A
:10148000EECF0AF0EECF0BF0EECF0CF0EECF0DF07A
:10149000EECF0EF0EECF0FF0EECF10F0EECF11F05A
:1014A000EECF12F0EECF13F0EECF14F0EECF15F03A
:1014B000EECF16F0EECF17F0EECF18F0EECF19F01A
:1014C000EECF1AF0EECF1BF0EECF1CF0EECF1DF0FA
:1014D000EECF1EF0EECF1FF0EECF20F0EECF21F0DA
:1014E000EFCF22F0D9CFE9FFDACFEAFFED50ED5090
:1014F00022C0EDFF21C0EDFF20C0EDFF1FC0EDFFBA
:101500001EC0EDFF1DC0EDFF1CC0EDFF1BC0EDFFB9
:101510001AC0EDFF19C0EDFF18C0EDFF17C0EDFFB9
:1015200016C0EDFF15C0EDFF14C0EDFF13C0EDFFB9
:1015300012C0EDFF11C0EDFF10C0EDFF0FC0EDFFB9
:101540000EC0EDFF0DC0EDFF0CC0EDFF0BC0EDFFB9
:101550000AC0EDFF09C0EDFF08C0EDFF07C0EDFFB9
:1015600006C0EDFF05C0EDFF04C0EDFF03C0EDFFB9
:1015700002C0EDFF01C0EDFF00C0EFFF270EE15CF0
:1015800003E200D0E16AE552E16EE552E7CFD9FF10
:08159000120007014E6B12006E
:08159800D9CFE6FFDACFE6FF30
:1015A000E1CFD9FFE2CFDAFFFB0EDBCFF3FFDB06A3
:1015B000F350000919E0FC0EDBCFE6FFFD0EDBCF98
:1015C000E6FFFA0EDBCFE6FF3DEC1BF0E552E552FD
:1015D000E552F3CF00F0F4CF01F00001F31CE4E199
:1015E000011CE2E1010E01D0000EE552E5CFDAFF69
:1015F000E7CFD9FF1200D9CFE6FFDACFE6FFE1CF80
:10160000D9FFE2CFDAFF3B0EE12402E3E168E652C4
:10161000E16E010EDB6A020EDB6AF90EDBCFF6FF2C
:10162000FA0EDBCFF7FFFB0EDBCFF8FF0800F5501B
:10163000DF6EDF5002E10EEF14F0250EDF5C02E0FA
:10164000DEEF13F0030EDB6A040EDB6A050EDB6AC5
:10165000060EDB6A070EDB6AD950F90FE96EFF0E42
:10166000DA20EA6EEF2AEECFF6FF000EEF22EECF81
:10167000F7FFEF22EECFF8FF0800F550DF6E2D0EDA
:10168000DF5C0CE02B0EDF5C09E0200EDF5C06E087
:10169000230EDF5C03E0300EDF5C1AE1DF50300A1E
:1016A00014E0130A0FE0030A0AE00B0A05E0060A39
:1016B000D3E1030EDB80D0D7030EDB82CDD7030E40
:1016C000DB84CAD7030EDB86C7D7030EDB88C4D7FB
:1016D0002A0EDF5C4EE1F70EDBCF00F0F80EDBCF19
:1016E00001F0020E005E000E015AF70E00C0DBFF93
:1016F000F80E01C0DBFF00C0E9FF01C0EAFF130ED6
:10170000EECFDBFF140EEDCFDBFF130EDBCF00F0CF
:10171000140EDBCF01F00001800E011410E0030E67
:10172000DB8029682A68130EDBCF2EF0140EDBCF86
:101730002FF0EAEC1BF0040E27C0DBFF06D0130EDF
:10174000DB50E76E040EE7CFDBFFD950F90FE96EEF
:10175000FF0EDA20EA6EEF2AEECFF6FF000EEF2240
:10176000EECFF7FFEF22EECFF8FF0800F550DF6E67
:101770002FD0090EDB6ADFCFE6FFE66A3BEC1CF0F8
:10178000E552E552F3501EE0090EDB500A0DF3500E
:10179000DF24D00FE76E090EE7CFDBFFD950F90F3A
:1017A000E96EFF0EDA20EA6EEF2AEECFF6FF000EAA
:1017B000EF22EECFF7FFEF22EECFF8FF0800F55053
:1017C000DF6ED9D7090EDB50E76E040EE7CFDBFFE3
:1017D000030EDBB0DB982E0EDF5C01E08DD0D9501C
:1017E000F90FE96EFF0EDA20EA6EEF2AEECFF6FF70
:1017F000000EEF22EECFF7FFEF22EECFF8FF08004A
:10180000F550DF6E2A0EDF5C43E1F70EDBCF00F010
:10181000F80EDBCF01F0020E005E000E015AF70E4B
:1018200000C0DBFFF80E01C0DBFF00C0E9FF01C014
:10183000EAFF130EEECFDBFF140EEDCFDBFF130E2E
:10184000DBCF00F0140EDBCF01F00001800E01149D
:101850000BE1130EDB50E76E050EE7CFDBFF010E49
:10186000F36E060EF3CFDBFFD950F90FE96EFF0ED2
:10187000DA20EA6EEF2AEECFF6FF000EEF22EECF6F
:10188000F7FFEF22EECFF8FF0800F550DF6E34D0FF
:10189000090EDB6ADFCFE6FFE66A3BEC1CF0E5529F
:1018A000E552F3501EE0090EDB500A0DF350DF2421
:1018B000D00FE76E090EE7CFDBFFD950F90FE96EC5
:1018C000FF0EDA20EA6EEF2AEECFF6FF000EEF22CF
:1018D000EECFF7FFEF22EECFF8FF0800F550DF6EF6
:1018E000D9D7090EDB50E76E050EE7CFDBFF010EFF
:1018F000F36E060EF3CFDBFF680EDF5C18E1D95004
:10190000F90FE96EFF0EDA20EA6EEF2AEECFF6FF4E
:10191000000EEF22EECFF7FFEF22EECFF8FF080028
:10192000F550DF6E680EDF5C31E1030E18D0740EE7
:10193000DF5C19E07A0EDF5C16E0480EDF5C06E043
:10194000540EDF5C03E05A0EDF5C02E1020E07D0AA
:101950006C0EDF5C03E06A0EDF5C18E1010EF36ED3
:10196000070EF3CFDBFFD950F90FE96EFF0EDA2037
:10197000EA6EEF2AEECFF6FF000EEF22EECFF7FF72
:10198000EF22EECFF8FF0800F550DF6EDF506E0A51
:1019900002E145EF13F01E0A01E146D3200A01E1FE
:1019A00043D33F0A01E1DBD21A0A01E1D8D20D0A82
:1019B00001E1D5D2200A01E1D2D23A0A01E1CFD227
:1019C000200A01E1CCD2260A01E1C7D20D0A01E1C9
:1019D000C4D21A0A01E1D8D1200A01E1B3D0300AF9
:1019E00032E0460A0FE0250A02E0FCEF13F0D9507E
:1019F000F90FE96EFF0EDA20EA6E010EEE5E000EC0
:101A0000EE5AEE5AFC0EDBCFE6FFFD0EDBCFE6FF13
:101A1000250EE66E3DEC1BF0E552E552E552F3CFA4
:101A200000F0F4CF01F00001F31C04E1011C02E11D
:101A3000F4EF13F0010EDB2A020E02E2FCEF13F0CA
:101A4000DB2AFCEF13F0080EDB6A040EDB50010802
:101A500013E2040EDB04E76E080EE7CFDBFFDB507A
:101A6000006E016AD950010FE96E000EDA20EA6EAD
:101A70000050EE260150ED22080EDB501AE0030E56
:101A8000DB50010B16E1200EE66E080EDBCFE6FF01
:101A9000FC0EDBCFE6FFFD0EDBCFE6FF7DDDE55282
:101AA000E552E552E552000902E0F4EF13F0080EAA
:101AB000DB6AF70EDBCF00F0F80EDBCF01F0020E91
:101AC000005E000E015AF70E00C0DBFFF80E01C0E9
:101AD000DBFF00C0E9FF01C0EAFFEFCFDFFFFC0E34
:101AE000DBCFE6FFFD0EDBCFE6FFDFCFE6FF3DEC11
:101AF0001BF0E552E552E552F3CF00F0F4CF01F0D0
:101B00000001F31C04E1011C02E1F4EF13F0010EEB
:101B1000DB2A020E01E3DB2A200EE66E080EDBCF85
:101B2000E6FFFC0EDBCFE6FFFD0EDBCFE6FF34DD8C
:101B3000E552E552E552E552000902E1FCEF13F0EF
:101B4000F4EF13F0070EDB5002081EE1F70EDBCFB7
:101B500000F0F80EDBCF01F0030E005E000E015A1C
:101B6000F70E00C0DBFFF80E01C0DBFF00C0E9FF8D
:101B700001C0EAFF0E0EEECFDBFF0F0EEECFDBFF54
:101B8000100EEECFDBFF22D0F70EDBCF03F0F80E06
:101B9000DBCF04F0020E035E000E045AF70E03C002
:101BA000DBFFF80E04C0DBFF03C0E9FF04C0EAFF5F
:101BB000EECF00F0EFCF01F0026A0E0E00C0DBFFA7
:101BC0000F0E01C0DBFF100E02C0DBFF0E0EDBCFDD
:101BD000E6FF0F0EDBCFE6FF100EDBCFE6FFC5EC16
:101BE0001BF0E552E552E552130E28C0DBFF140E40
:101BF00029C0DBFF060EDB5016E0130EDB50F36E40
:101C0000050EDBCFF4FFF350F45C0DE2050EDB5064
:101C1000E66ED950130FE96E000EDA20EA6EE55237
:101C2000E750EE6EED6A130EDB50F36E040EDBCF61
:101C3000F4FFF350F45C06E2130EDB50E76E040E83
:101C4000E7CFDBFF040EDBCFE6FF130EDB50E552E0
:101C5000E75CE76E080EE7CFDBFFDB50006E016A42
:101C6000D950010FE96E000EDA20EA6E0050EE2620
:101C70000150ED22060EDB500FE0040EDB50F36E38
:101C8000050EDBCFF4FFF350F45C06E2050EDB50EB
:101C9000E76E040EE7CFDBFF030EDBB016D0200E9D
:101CA000E66E080EDBCFE6FFFC0EDBCFE6FFFD0E97
:101CB000DBCFE6FF71DCE552E552E552E552000963
:101CC00002E0F4EF13F0080EDB6A090EDB6A0E0E79
:101CD000DBCFF6FF0F0EDBCFF7FF100EDBCFF8FFE9
:101CE0000800F550DF6EDF5039E0040EDB50F36E74
:101CF000090EDBCFF4FFF350F45C30E2FC0EDBCFD7
:101D0000E6FFFD0EDBCFE6FFDFCFE6FF3DEC1BF08D
:101D1000E552E552E552F3CF00F0F4CF01F00001B7
:101D2000F31C04E1011C02E1F4EF13F0010EDB2AC5
:101D3000020E01E3DB2A090EDB2AD9500E0FE96EF1
:101D4000000EDA20EA6EEF2AEECFF6FF000EEF2249
:101D5000EECFF7FFEF22EECFF8FFC2D7200EE66EF0
:101D6000080EDBCFE6FFFC0EDBCFE6FFFD0EDBCF80
:101D7000E6FF12DCE552E552E552E552000902E1C8
:101D8000FCEF13F0F4EF13F0F70EDBCF00F0F80EDA
:101D9000DBCF01F0020E005E000E015AF70E00C00C
:101DA000DBFFF80E01C0DBFF00C0E9FF01C0EAFF66
:101DB000110EEECFDBFF120EEDCFDBFF110EDBCFEE
:101DC000E6FF120EDBCFE6FFB7EC1BF0E552E55263
:101DD000130EF3CFDBFF140EF4CFDBFF060EDB5048
:101DE00016E0130EDB50F36E050EDBCFF4FFF3505D
:101DF000F45C0DE2050EDB50E66ED950130FE96E70
:101E0000000EDA20EA6EE552E750EE6EED6A130E30
:101E1000DB50F36E040EDBCFF4FFF350F45C06E20C
:101E2000130EDB50E76E040EE7CFDBFF040EDBCFB3
:101E3000E6FF130EDB50E552E75CE76E080EE7CFD6
:101E4000DBFFDB50006E016AD950010FE96E000E16
:101E5000DA20EA6E0050EE260150ED22060EDB502D
:101E60000FE0040EDB50F36E050EDBCFF4FFF350F2
:101E7000F45C06E2050EDB50E76E040EE7CFDBFFF5
:101E8000030EDBB017D0200EE66E080EDBCFE6FFA8
:101E9000FC0EDBCFE6FFFD0EDBCFE6FFCCEC0AF05D
:101EA000E552E552E552E552000902E0F4EF13F085
:101EB000080EDB6A090EDB6A110EDBCFE9FF120E9A
:101EC000DBCFEAFFEFCFDFFFDF5030E0040EDB5067
:101ED000F36E090EDBCFF4FFF350F45C27E2FC0E47
:101EE000DBCFE6FFFD0EDBCFE6FFDFCFE6FF3DEC0D
:101EF0001BF0E552E552E552F3CF00F0F4CF01F0CC
:101F00000001F31C04E1011C02E1F4EF13F0010EE7
:101F1000DB2A020E01E3DB2A090EDB2A110EDB2A83
:101F2000DBCFE9FF120ECCE3DB2ACAD7200EE66E28
:101F3000080EDBCFE6FFFC0EDBCFE6FFFD0EDBCFAE
:101F4000E6FFCCEC0AF0E552E552E552E552000915
:101F500002E1FCEF13F0F4EF13F0030EDB8E070E3B
:101F6000DB0421E1F70EDBCF00F0F80EDBCF01F050
:101F7000040E005E000E015AF70E00C0DBFFF80EE3
:101F800001C0DBFF00C0E9FF01C0EAFF0A0EEECF8F
:101F9000DBFF0B0EEECFDBFF0C0EEECFDBFF0D0EEB
:101FA000EECFDBFFD2D0070EDB5003083DE1030E7E
:101FB000DBAE1ED0F70EDBCF04F0F80EDBCF05F062
:101FC000020E045E000E055AF70E04C0DBFFF80E89
:101FD00005C0DBFF04C0E9FF05C0EAFFEFCF00F05A
:101FE000016A026A036A00AE81D0016802687DD08E
:101FF000F70EDBCF01F0F80EDBCF02F0020E015E30
:10200000000E025AF70E01C0DBFFF80E02C0DBFF24
:1020100001C0E9FF02C0EAFFEFCF00F00A0E00C0E6
:10202000DBFF0B0EDB6A8DD0070EDB5002083DE1B3
:10203000030EDBAE1ED0F70EDBCF04F0F80EDBCFC5
:1020400005F0030E045E000E055AF70E04C0DBFF18
:10205000F80E05C0DBFF04C0E9FF05C0EAFFEECFC4
:1020600000F0EECF01F0EFCF02F0036A02AE3ED0F7
:102070003CD0F70EDBCF04F0F80EDBCF05F0030EFB
:10208000045E000E055AF70E04C0DBFFF80E05C013
:10209000DBFF04C0E9FF05C0EAFFEECF00F0EECFA2
:1020A00001F0EFCF02F0036A21D0030EDBAE2BD09C
:1020B000F70EDBCF04F0F80EDBCF05F0020E045E66
:1020C000000E055AF70E04C0DBFFF80E05C0DBFF5B
:1020D00004C0E9FF05C0EAFFEECF00F0EFCF01F04A
:1020E000026A036A01AE02D0026803680A0E00C0E9
:1020F000DBFF0B0E01C0DBFF0C0E02C0DBFF0D0E81
:1021000003C0DBFF22D0F70EDBCF02F0F80EDBCFEF
:1021100003F0020E025E000E035AF70E02C0DBFF50
:10212000F80E03C0DBFF02C0E9FF03C0EAFFEECFF9
:1021300000F0EFCF01F00A0E00C0DBFF0B0E01C074
:10214000DBFF0C0EDB6A0D0EDB6A060EDB5005E1D1
:10215000010EF36E050EF3CFDBFF150EDB6A160ED4
:10216000DB6AD950370F006E000EDA20016E390E8F
:1021700000C0DBFF3A0E01C0DBFF380EDB6A080E41
:10218000DB6A0A0EF36E070EF3CFDBFFDF50780A2F
:1021900012E0200A10E0280A0CE0200A0AE03F0AB8
:1021A00006E00D0A02E0200A0BE1020E05D0080E3F
:1021B00003D0080EDF26100EF36E070EF3CFDBFF01
:1021C000030EDBBE02D0DB92DB94DB50800B34E0ED
:1021D000D9500A0FE96E000EDA20EA6ED890030E8D
:1021E000EB50000A08E6000EEE5C000EEE58000E02
:1021F000EE58000EEE5820E20A0EDBCF27F00B0E51
:10220000DBCF28F00C0EDBCF29F00D0EDBCF2AF050
:102210002C682D682E682F687FEC1BF00A0E23C0F7
:10222000DBFF0B0E24C0DBFF0C0E25C0DBFF0D0E09
:1022300026C0DBFF2D0E08D0030EDBA202D02B0E32
:1022400003D0DBA408D0200EF36E170EF3CFDBFF14
:10225000150EDB2A02D0170EDB6A050EDB5012E1E9
:102260000A0EDBCF00F00B0EDBCF01F00C0EDBCF44
:1022700002F00D0EDBCF03F000500110021003102E
:1022800001E1B5D0D20E006E380E016E000E026E66
:10229000070EDBCF03F0046A056A066A03C02CF060
:1022A00004C02DF005C02EF006C02FF00A0EDBCFC3
:1022B00027F00B0EDBCF28F00C0EDBCF29F00D0E34
:1022C000DBCF2AF017EC1CF000502324F36E0150F2
:1022D0002420F46E02502520F86EF4CFF7FFF3CFE0
:1022E000F6FF0800090EF5CFDBFF580EDF5C12E1A8
:1022F000610EF36E090EDBCFF4FFF350F45C0AE3DA
:10230000200E006E090EDBCFE7FF0050E75E090EDE
:10231000E7CFDBFF070EDBCF00F0016A026A036A3A
:10232000D9500A0FE96E000EDA20EA6E00C02CF0D8
:1023300001C02DF002C02EF003C02FF0EECF27F029
:10234000EECF28F0EECF29F0EFCF2AF017EC1CF0FB
:102350002AC0EDFF29C0EDFF28C0EDFF27C0EFFF29
:10236000390EDBCFE9FFDB063A0EDBCFEAFF01E2F5
:10237000DB06090EDBCFEFFF150EDB2A0A0EDBCFE3
:1023800000F00B0EDBCF01F00C0EDBCF02F00D0ED8
:10239000DBCF03F0005001100210031001E072D7F0
:1023A000030EDBA626D06F0EDF5C0FE1050EDBCF40
:1023B00000F0150EDB50D88000541BE3150EDB280F
:1023C000E76E050EE7CFDBFF14D0780EDF5C09E087
:1023D000580EDF5C06E0620EDF5C03E0420EDF5C5D
:1023E00008E1020EF36E160EF3CFDBFF02D0150EDE
:1023F000DB6A030EDB50100B11E0040EDBCF00F0A4
:10240000050EDB50D880005409E2060EDB5006E1D1
:10241000040EDB50E76E050EE7CFDBFF050EDBCFCA
:1024200000F0150EDB50D88000540AE2050EDBCF19
:10243000E7FF150EDB50E75E050EE7CFDBFF02D0AE
:10244000050EDB6A040EDBCF00F0160EDBCFE6FFD5
:10245000150EDBCFE6FF050EDB50E552E724E55213
:10246000E724D880005417E2160EDBCFE6FF150EE6
:10247000DBCFE6FF040EDBCFE6FF050EDB50E552B7
:10248000E75CE552D880E754E552D880E754E76E20
:10249000080EE7CFDBFF030EDB50010B27E1080E30
:1024A000DB5024E0200EE66E080EDBCFE6FFFC0ECC
:1024B000DBCFE6FFFD0EDBCFE6FFCCEC0AF0E5520A
:1024C000E552E552E552000901E08ED1080EDB50DD
:1024D000006E016AD950010FE96E000EDA20EA6E33
:1024E0000050EE260150ED22080EDB6A170EDB507D
:1024F00018E0FC0EDBCFE6FFFD0EDBCFE6FF170E8C
:10250000DBCFE6FF3DEC1BF0E552E552E552F3CFA1
:1025100000F0F4CF01F00001F31C03E1011C01E124
:1025200063D1160EDB502CE0FC0EDBCFE6FFFD0E78
:10253000DBCFE6FF300EE66E3DEC1BF0E552E552D8
:10254000E552F3CF00F0F4CF01F00001F31C03E1FA
:10255000011C01E149D1FC0EDBCFE6FFFD0EDBCF14
:10256000E6FFDFCFE6FF3DEC1BF0E552E552E5521A
:10257000F4CF01F00001F31C03E1011C01E134D1AF
:10258000050EDBCF00F0160EDB50D880005409E2B8
:10259000050EDBCFE7FF160EDB50E75E050EE7CF3B
:1025A000DBFF300EE66E050EDBCFE6FFFC0EDBCF69
:1025B000E6FFFD0EDBCFE6FFCCEC0AF0E552E5527C
:1025C000E552E552000901E00FD1390EDB2ADBCFDD
:1025D000E9FF3A0E01E3DB2ADBCFEAFF090EEFCF7A
:1025E000DBFFDB5020E0FC0EDBCFE6FFFD0EDBCF98
:1025F000E6FF090EDBCFE6FF3DEC1BF0E552E552AE
:10260000E552F3CF00F0F4CF01F00001F31C03E139
:10261000011C01E1E9D0390EDB2ADBCFE9FF3A0EDC
:10262000DBE3DB2AD9D7200EE66E080EDBCFE6FF10
:10263000FC0EDBCFE6FFFD0EDBCFE6FFCCEC0AF0B5
:10264000E552E552E552E552000901E0CDD0160E03
:10265000DBCFE6FF080EDBCFE6FF150EDBCFE6FF94
:10266000050EDB50E552E724E552E724E552E72466
:10267000006E016AD950010FE96E000EDA20EA6E91
:102680000050EE260150ED22B7D0070EDB50030AB2
:1026900001E178D0010A4EE0030A1FE0F70EDBCF1C
:1026A00000F0F80EDBCF01F0020E005E000E015AC2
:1026B000F70E00C0DBFFF80E01C0DBFF00C0E9FF32
:1026C00001C0EAFFEE50EFCFEAFFE96E010EDBCF6B
:1026D000EEFF020EDBCFEDFF8FD0010EDBCF02F05D
:1026E000020EDBCF03F0046A056A03AE02D0046871
:1026F0000568F70EDBCF00F0F80EDBCF01F0020E1D
:10270000005E000E015AF70E00C0DBFFF80E01C09C
:10271000DBFF00C0E9FF01C0EAFFEE50EFCFEAFFA8
:10272000E96E02C0EEFF03C0EEFF04C0EEFF05C07D
:10273000EEFF62D0010EDBCF02F0020EDBCF03F022
:10274000046A03BE0468F70EDBCF00F0F80EDBCF9F
:1027500001F0020E005E000E015AF70E00C0DBFF12
:10276000F80E01C0DBFF00C0E9FF01C0EAFFEE5038
:10277000EFCFEAFFE96E02C0EEFF03C0EEFF04C038
:10278000EEFF3AD0F70EDBCF00F0F80EDBCF01F012
:10279000020E005E000E015AF70E00C0DBFFF80EBD
:1027A00001C0DBFF00C0E9FF01C0EAFFEE50EFCF40
:1027B000EAFFE96E010EDBCFEFFF1ED0FC0EDBCF90
:1027C000E6FFFD0EDBCFE6FFDFCFE6FF3DEC1BF0C3
:1027D000E552E552E552F3CF00F0F4CF01F00001ED
:1027E000F31C05E1011C03E1F368F46821D0010E3C
:1027F000DB2A020E01E3DB2AD950F90FE96EFF0E46
:10280000DA20EA6EEF2AEECFF6FF000EEF22EECFCF
:10281000F7FFEF22EECFF8FF16EF0BF0010EDBCF44
:1028200000F0020EDBCF01F000C0F3FF01C0F4FFA7
:102830003B0EE15C02E2E16AE552E16EE552E5CF72
:08284000DAFFE7CFD9FF120017
:08284800D9CFE6FFE1CFD9FF73
:10285000020EE126DE680F0EDD6EE6689DEC1AF0D2
:10286000E552006EFE0EDB50005C11E0D9CFE9FFAF
:10287000DACFEAFFEE06000EED5AEECF01F0EDCF13
:1028800002F0D8800154000E025401E2E6D7D9CFFD
:10289000E9FFDACFEAFFEE50ED1003E1000E03D0BE
:1028A00002D0010E00D0006E020EE15C02E2E16A8D
:1028B000E552E16E0050E552E7CFD9FF1200D9CFC3
:1028C000E6FFE1CFD9FF9290C69A99EC1AF0FE0E7E
:1028D000DBCFE6FF5FEC1AF0E552E66A7DEC1AF01A
:1028E000E552010EE66E6FEC1AF0E552E66A8BECEB
:1028F0001AF0E552C68AE552E7CFD9FF1200D9CFC8
:10290000E6FFE1CFD9FF030EE1268980020EE66ED5
:10291000D6DFE552E6689DEC1AF0E552E6689DECDC
:102920001AF0E552E6689DEC1AF0E552E6689DEC77
:102930001AF0E552E6689DEC1AF0E552E6689DEC67
:102940001AF0E552E6689DEC1AF0E552E6689DEC57
:102950001AF0E552E6689DEC1AF0E552E6689DEC47
:102960001AF0E5528990400EE66E9DEC1AF0E552A1
:10297000E66A9DEC1AF0E552E66A9DEC1AF0E55223
:10298000E66A9DEC1AF0E552E66A9DEC1AF0E55213
:10299000950EE66E9DEC1AF0E552010EE66E54DFE0
:1029A000E552000902E1000E7CD08980E6689DECCA
:1029B0001AF0E552010EDB6A020EDB6A010EDBCF74
:1029C00000F0020EDBCF01F0FF0E005C0F0E01588D
:1029D00031E2010EDB2A020E01E3DB2A8990410E6F
:1029E000E66E9DEC1AF0E552E66A9DEC1AF0E552AF
:1029F000E66A9DEC1AF0E552E66A9DEC1AF0E552A3
:102A0000E66A9DEC1AF0E552E6689DEC1AF0E55294
:102A1000E66A1ADFE552010807E18980E6689DEC65
:102A20001AF0E55207D005D08980E6689DEC1AF0CF
:102A3000E552C4D7010EDBCF00F0020EDBCF01F070
:102A4000FE0E005C000E015802E3000E2AD08980C1
:102A5000E6689DEC1AF0E5528990500EE66E9DEC0A
:102A60001AF0E552E66A9DEC1AF0E552E66A9DEC32
:102A70001AF0E552020EE66E9DEC1AF0E552E66A97
:102A80009DEC1AF0E552E6689DEC1AF0E552E66A14
:102A9000DBDEE552000902E1000E03D08980010E61
:102AA00000D0006E030EE15C02E2E16AE552E16EE5
:102AB0000050E552E7CFD9FF1200D9CFE6FFE1CFB2
:102AC000D9FF040EE1268980E66AF9DEE552899095
:102AD000D950FB0FE96EFF0EDA20EA6E090EE76EA1
:102AE000D890EF36010EEB36020EEB36030EEB36C6
:102AF000E706F6E1580EE66E9DEC1AF0E552FB0E85
:102B0000DBCF00F0FC0EDBCF01F0FD0EDBCF02F0DF
:102B1000FE0EDBCF03F0180ED890033202320132E2
:102B20000032E806F9E10050E66E9DEC1AF0E5523D
:102B3000FB0EDBCF00F0FC0EDBCF01F0FD0EDBCF98
:102B400002F0FE0EDBCF03F0100ED89003320232FB
:102B500001320032E806F9E10050E66E9DEC1AF011
:102B6000E552FB0EDBCF00F0FC0EDBCF01F0FD0EDB
:102B7000DBCF02F0FE0EDBCF03F0080ED89003325D
:102B8000023201320032E806F9E10050E66E9DECB7
:102B90001AF0E552FB0EDBCFE6FF9DEC1AF0E55292
:102BA000E6689DEC1AF0E552E66A4EDEE552000951
:102BB00002E1000E57D0FE0EE66E9DEC1AF0E552D3
:102BC000DE6ADD6ADECF00F0DDCF01F0000E005CD2
:102BD000020E015815E2F90EDBCFE9FFFA0EDBCF4A
:102BE000EAFFEF50E66E9DEC1AF0E552F90EDB2A93
:102BF000FA0E01E3DB2ADF2A010E01E3DB2AE2D72A
:102C0000E6689DEC1AF0E552E6689DEC1AF0E55294
:102C1000020EDB680F0EF36E030EF3CFDBFFE668E8
:102C20009DEC1AF0E5521F0B05080EE0D950020F7B
:102C3000E96EDACFEAFFEE50ED1006E0020EDB0699
:102C4000030E01E2DB06EBD7D950020FE96EDACFB3
:102C5000EAFFEE50ED1002E1000E04D08980C69A22
:102C6000010E00D0006E040EE15C02E2E16AE55262
:102C7000E16E0050E552E7CFD9FF1200D9CFE6FF51
:102C8000E1CFD9FF020EE1268980E66A18DEE5521F
:102C90008990D950FB0FE96EFF0EDA20EA6E090E1B
:102CA000E76ED890EF36010EEB36020EEB36030ED0
:102CB000EB36E706F6E1510EE66E9DEC1AF0E552B2
:102CC000FB0EDBCF00F0FC0EDBCF01F0FD0EDBCF07
:102CD00002F0FE0EDBCF03F0180ED8900332023262
:102CE00001320032E806F9E10050E66E9DEC1AF080
:102CF000E552FB0EDBCF00F0FC0EDBCF01F0FD0E4A
:102D0000DBCF02F0FE0EDBCF03F0100ED8900332C3
:102D1000023201320032E806F9E10050E66E9DEC25
:102D20001AF0E552FB0EDBCF00F0FC0EDBCF01F01A
:102D3000FD0EDBCF02F0FE0EDBCF03F0080ED890C5
:102D40000332023201320032E806F9E10050E66E49
:102D50009DEC1AF0E552FB0EDBCFE6FF9DEC1AF07E
:102D6000E552E6689DEC1AF0E552E66A6DDDE55243
:102D7000000902E1000E37D0FE0EE66E65DDE55279
:102D8000000902E1000E2FD0DE6ADD6ADECF00F01E
:102D9000DDCF01F0000E005C020E015818E2E6687B
:102DA0009DEC1AF0E552E66EF90EDBCFE9FFFA0E64
:102DB000DBCFEAFFE552E750EF6EF90EDB2AFA0EA1
:102DC00001E3DB2ADF2A010E01E3DB2ADFD7E66815
:102DD0009DEC1AF0E552E6689DEC1AF0E552898008
:102DE000C69A010E00D0006E020EE15C02E2E16ABA
:0E2DF000E552E16E0050E552E7CFD9FF120028
:022DFE00D9CF2B
:102E0000E6FFE1CFD9FF430EE12674D97FEC14F041
:102E1000000931E0EE0E006E330E016E026A00C052
:102E2000E6FF01C0E6FF02C0E6FFACEC1AF0E55297
:102E3000E552E552D950400FE66E000EDA20E66EFC
:102E400066EC02F0E552E552400EDB5036E0410EF2
:102E5000DB5022E0BD0E006E330E016E026A00C030
:102E6000E6FF01C0E6FF02C0E6FFACEC1AF0E55257
:102E7000E552E55221D0D00E006E330E016E026A8B
:102E800000C0E6FF01C0E6FF02C0E6FFACEC1AF0AE
:102E9000E552E552E552FFD7AA0E006E330E016EE1
:102EA000026A00C0E6FF01C0E6FF02C0E6FFACEC2C
:102EB0001AF0E552E552E55210D0690E006E330E5D
:102EC000016E026A00C0E6FF01C0E6FF02C0E6FF35
:102ED000ACEC1AF0E552E552E552D950400FE66EDF
:102EE000000EDA20E66EDFEC02F0E552E552000952
:102EF00001E1F5D020C7E6FF21C7E6FF520E006EC4
:102F0000330E016E026A00C0E6FF01C0E6FF02C098
:102F1000E6FFACEC1AF0036E050EE15E035007010C
:102F20002251E66EE66A380E006E330E016E026ABA
:102F300000C0E6FF01C0E6FF02C0E6FFACEC1AF0FD
:102F4000036E050EE15E035023C7E6FF24C7E6FFCC
:102F5000170E006E330E016E026A00C0E6FF01C05C
:102F6000E6FF02C0E6FFACEC1AF0036E050EE15E70
:102F7000035007012551E66EE66A020E006E330E1D
:102F8000016E026A00C0E6FF01C0E6FF02C0E6FF74
:102F9000ACEC1AF0036E050EE15E035026C7E6FFA7
:102FA00027C7E6FFEC0E006E320E016E026A00C00B
:102FB000E6FF01C0E6FF02C0E6FFACEC1AF0036ECC
:102FC000050EE15E035028C7E6FF29C7E6FFC90EDC
:102FD000006E320E016E026A00C0E6FF01C0E6FF1D
:102FE00002C0E6FFACEC1AF0036E050EE15E035082
:102FF0002CC7E6FF2DC7E6FFB50E006E320E016E40
:10300000026A00C0E6FF01C0E6FF02C0E6FFACECCA
:103010001AF0036E050EE15E0350070130510701FF
:10302000016A2E25006E2F51012200C0E6FF01C06B
:10303000E6FFA00E026E320E036E046A02C0E6FFC7
:1030400003C0E6FF04C0E6FFACEC1AF0056E050E07
:10305000E15E055028C704F029C705F0066A076A33
:1030600004C0E6FF05C0E6FF06C0E6FF07C0E6FFB6
:103070000BEC04F0E552E552E552E55227C000F0B2
:1030800028C001F029C002F02AC003F000C0E6FF0A
:1030900001C0E6FF02C0E6FF03C0E6FF870E086E30
:1030A000320E096E0A6A08C0E6FF09C0E6FF0AC0D0
:1030B000E6FFACEC1AF00B6E070EE15E0B50840ECF
:1030C000006E320E016E026A00C0E6FF01C0E6FF2C
:1030D00002C0E6FFACEC1AF0E552E552E552FFD72C
:1030E000430EE15C02E2E16AE552E16EE552E7CFB0
:1030F000D9FF1200810EE66EE66A3C0EE66EF8EC31
:103100001AF0E552E552E552360E006E320E016EAF
:10311000026A00C0E6FF01C0E6FF02C0E6FFACECB9
:103120001AF0E552E552E5521200D9CFE6FFE1CFA1
:10313000D9FF060EE126000EE66E050EE66ED950AA
:10314000FB0FE96EFF0EDA20EA6EEECFE6FFEECF60
:10315000E6FFEECFE6FFEFCFE6FF3EEC16F0006EA7
:10316000060EE15E0050D950040FE96EDACFEAFF97
:10317000000EEE6E050EED6EDE6ADD6ADECF00F04B
:10318000DDCF01F0200E005C000E015847E2020E78
:10319000DB6A030EDB6A020EDBCF00F0030EDBCF2F
:1031A00001F0100E005C000E015823E2040EDBCF8C
:1031B000E9FFDB2A050EDBCFEAFF01E3DB2AEF5054
:1031C000E66EE66A300E006E320E016E026A00C0D4
:1031D000E6FF01C0E6FF02C0E6FFACEC1AF0036EAA
:1031E000050EE15E0350020EDB2A030E01E3DB2A2B
:1031F000D2D7840E006E320E016E026A00C0E6FF66
:1032000001C0E6FF02C0E6FFACEC1AF0E552E55261
:10321000E552DF2A010E01E3DB2AB0D7060EE15C9E
:1032200002E2E16AE552E16EE552E7CFD9FF120012
:103230002530325820004641544C69622076322EA7
:10324000312054657374204170706C6963617469D6
:103250006F6E0D0A627920416E64726573204F6C47
:103260006976617265732028616E64796F6C697626
:103270006172657340676D61696C2E636F6D290DB6
:103280000A0D0A000D0A00526F6F742044697265BE
:1032900063746F7279204C42413A2025640D0A0014
:1032A0004461746120626567696E204C42413A2036
:1032B00025640D0A0046415420626567696E204C02
:1032C00042413A2025640D0A00526F6F74206469F0
:1032D000726563746F727920666972737420636CAF
:1032E00075737465723A2025640D0A005365637422
:1032F0006F727320706572204641543A2025640D28
:103300000A004E756D626572206F662046415473E7
:103310003A2025640D0A004E756D626572206F6655
:1033200020726573657276656420736563746F726D
:10333000733A2025640D0A00536563746F7273201D
:1033400070657220636C75737465723A2025640D24
:103350000A00427974657320706572207365637426
:103360006F723A2025640D0A004D656D6F727920E9
:103370006361726420646F6573206E6F7420636F85
:103380006E7461696E20612076616C6964204641CB
:10339000543136206F7220464154333220706172AE
:1033A000746974696F6E210D0A0053797374656DC9
:1033B0002069733A2046415431360D0A005379731F
:1033C00074656D2069733A2046415433320D0A000A
:1033D00043616E206E6F7420696E697469616C69F7
:1033E0007A652053442063617264210D0A005344BE
:1033F000206361726420696E697469616C697A65C1
:1034000064207375636365737366756C6C792E0DD8
:103410000A0D0A002530325820253032580D0A0096
:10342000060EF66E000EF76E000EF86E0001090033
:10343000F550656F0900F550666F03E1656701D0CF
:103440003DD00900F550606F0900F550616F09002B
:10345000F550626F09000900F550E96E0900F5505A
:10346000EA6E090009000900F550636F0900F55084
:10347000646F09000900F6CF67F0F7CF68F0F8CF66
:1034800069F060C0F6FF61C0F7FF62C0F8FF00019D
:10349000635302E1645307E00900F550EE6E6307E1
:1034A000F8E26407F9D767C0F6FF68C0F7FF69C0A4
:0E34B000F8FF00016507000E665BBFD7120033
:0234BE00D9CF64
:1034C000E6FFE1CFD9FFFE0EDBCFE6FFF00EC6141C
:1034D000E552E710C66EE552E7CFD9FF1200D9CF0B
:1034E000E6FFE1CFD9FFFE0EDB50E8B0C688E8A0CA
:1034F000C698E552E7CFD9FF1200D9CFE6FFE1CF5A
:10350000D9FFFE0EDB50E8B0C78CE8A0C79CE5529F
:10351000E7CFD9FF1200D9CFE6FFE1CFD9FFFE0EEA
:10352000DB50E8B0C78EE8A0C79EE552E7CFD9FFD1
:1035300012009380949E93921200D9CFE6FFE1CFC0
:10354000D9FFFE0EDB50C96EC7A0FED7C95000D010
:08355000E552E7CFD9FF12009C
:08355800D9CFE6FFDACFE6FF50
:10356000E1CFD9FFE2CFDAFFE652E652E652E65269
:10357000D950FB0F006EFF0EDA20016E00C0DEFF97
:10358000DD6EDECFE6FFDDCFE6FFFB0EDBCFE6FF35
:10359000FC0EDBCFE6FFFD0EDBCFE6FF6AC0E6FFE9
:1035A0006BC0E6FFFBEC0AF0006E070EE15C02E286
:1035B000E16AE552E16E0050020EF3CFDBFF030E2D
:1035C000F4CFDBFF020EDBCF00F0030EDBCF01F008
:1035D00000C0F3FF01C0F4FF040EE15C02E2E16A07
:1035E000E552E16EE552E5CFDAFFE7CFD9FF1200F1
:1035F000D9CFE6FFDACFE6FFE1CFD9FFE2CFDAFF9E
:10360000AC6AAB6AFD0EDBB0AC88DBA202D0AC8C3E
:10361000AB8CDBB4AC8EDBA602D0AB8801D0AB8A1E
:10362000DBB8AC849E98DBBAAB86DBAC02D09D8A5B
:1036300001D09D9A9E9ADBAE02D09D8801D09D98C4
:10364000FB0EDB50AF6EFB0EFC0EDBCF01F001C0BA
:1036500000F0016A0050B06EAC8AAB8E949C948EE0
:10366000AC50100B04E0AC50800B01E1948CE5529F
:0A367000E5CFDAFFE7CFD9FF120023
:06367A00D9CFE6FFDACF14
:10368000E6FFE1CFD9FFE2CFDAFFFB0EDBCF00F0A0
:10369000FC0EDBCF01F00001800E01141AE1FB0EDD
:1036A000DBCFE9FFFC0EDBCFEAFFEECFF3FFEDCF80
:1036B000F4FFEE2A000EEF22F3CFE9FFF4CFEAFF8A
:1036C000FD0EDBCFEFFFEF50016AF36E01C0F4FF98
:1036D00010D0FB0EDB50FE0806E1FD0EDBCFE6FF4F
:1036E0005BEC1CF005D0FD0EDBCFE6FF79EC1CF0A7
:0E36F000E552E552E5CFDAFFE7CFD9FF120031
:0236FE00275053
:103700002C02F3CF23F0F4CF24F02D02F350242623
:10371000000EF420256E27502E02F3502526000EB1
:10372000F420266E27502F02F350262628502C0214
:10373000F3502426F4502522000E262228502D0274
:10374000F3502526F450262228502E02F350262628
:1037500029502C02F3502526F450262229502D0200
:0E376000F35026262A502C02F3502626120083
:02376E00FE0E4D
:10377000E3CFE9FFFF0EE3CFEAFFF36AF46AEE520C
:1037800003E0F34AF42AFBD71200FF0EE3CFF8FF61
:10379000E552FF0EE3CFF7FFE552FF0EE3CFF6FF52
:1037A000E552E66AE66AE66A0900F55209E0FD0EAE
:1037B000E32A05E1FE0EE32A02E1FF0EE32AF4D735
:1037C000FD0EE3CF28F0FE0EE3CF29F0FF0EE3CF8E
:0437D0002AF01200C9
:0C37D4002AC036F029C035F029502E0222
:1037E000F4CF28F0F3CF27F02A502F02F4CF2AF09D
:1037F000F3CF29F02E02F3502826F4502922E86A4C
:103800002A2235502F02F3502826F4502922E86A44
:103810002A222FAE10EF1CF03550295E36502A5A5E
:0E38200036AE000C2E50295E2F502A5A000C96
:02382E00266A08
:10383000256A246A236A200EE76ED8902736283638
:1038400029362A3623362436253626362C50235C54
:103850002D5024582E5025582F50265809E32C500F
:10386000235E2D50245A2E50255A2F50265A272A8F
:06387000E72EE4D7120070
:0A387600F36AF46AFF0EE124E96E24
:10388000FF0EE220EA6EED6607D02F0EEF6404D043
:0A3890003A0EEF6001D0F32A120097
:06389A0013EE00F023EE26
:1038A00000F0F86A329C10EC1AF07AEC1CF0FFEC95
:0638B00016F0FBD7120028
:0A38B600FF0EE350ACBA04D0AF6A75
:1038C000AB8EAC8A949CACA2FED7AD6EF36EF46A5C
:0238D0001200E4
:0E38D200303132333435363738396162636451
:0338E0006566001A
:0C38E40000EE00F00F0EEE6AEA62FDD765
:0238F0001200C4
:0238F2001200C2
:0238F4001200C0
:0238F600FEFFD3
:020000040030CA
:0100000000FF
:010001000CF2
:0100020019E4
:010003001EDE
:0100050003F7
:010006008178
:00000001FF
